:1000000071C000008EC000008CC000008AC00000DB
:1000100088C0000086C0000084C0000082C00000CC
:1000200080C000007EC000007CC000007AC00000DC
:1000300078C0000076C0000074C0000072C00000EC
:1000400070C0000042C100006CC000006AC0000027
:1000500068C0000066C0000064C0000062C000000C
:1000600060C000005EC000005CC000005AC000001C
:1000700058C0000056C0000054C0000052C000002C
:1000800050C000004EC000004CC000004AC000003C
:1000900048C0000046C0000044C0000042C000004C
:1000A00040C000003EC000003CC000003AC000005C
:1000B00038C0000036C0000034C0000032C000006C
:1000C00030C000002EC000002CC000002AC000007C
:1000D00028C0000026C0000024C0000022C000008C
:1000E00020C0000011241FBECFEFD1E2DEBFCDBF84
:1000F00000E00CBF12E0A0E0B2E0E4EAF9E000E0CA
:100100000BBF02C007900D92A630B107D9F72BE0C4
:10011000A6E0B2E001C01D92AF38B207E1F727D4E4
:100120003FC46ECFFFCFFF93FCB7FF93FFB7F894A8
:10013000FF93EF93DF93CF93BF93AF939F938F93EF
:100140007F936F935F934F933F932F931F930F93DF
:10015000FF92EF92DF92CF92BF92AF929F928F92D7
:100160007F926F925F924F923F922F921F920F92C7
:100170008DB79EB790938C0B80938B0BE0918D0B7A
:10018000F0918E0BF395808191819EBF8DBF0F9072
:100190001F902F903F904F905F906F907F908F9027
:1001A0009F90AF90BF90CF90DF90EF90FF900F9116
:1001B0001F912F913F914F915F916F917F918F91FF
:1001C0009F91AF91BF91CF91DF91EF91FF91FFBFD1
:1001D000FF91FCBFFF910895FF93FCB7FF93FFB71A
:1001E000F894FF93EF93DF93CF93BF93AF939F93D5
:1001F0008F937F936F935F934F933F932F931F93AF
:100200000F93FF92EF92DF92CF92BF92AF929F92A5
:100210008F927F926F925F924F923F922F921F9296
:100220000F92E0918D0BF0918E0B8DB79EB7F395E9
:100230009183808380918B0B90918C0B9EBF8DBF9F
:100240000F901F902F903F904F905F906F907F90F6
:100250008F909F90AF90BF90CF90DF90EF90FF90E6
:100260000F911F912F913F914F915F916F917F91CE
:100270008F919F91AF91BF91CF91DF91EF91FF91BE
:10028000FFBFFF91FCBFFF910895FC01DB01A95F57
:10029000BE4F1D921C9280819181892B19F471832C
:1002A000608306C0A281B381A95FBE4F6D937C932A
:1002B000738362830895CF93CFB7F89483E08093DC
:1002C00039028ADFCFBFCF910895FF93FCB7FF9328
:1002D000FFB7F894F068FF93EF93DF93CF93BF934A
:1002E000AF939F938F937F936F935F934F933F93BE
:1002F0002F931F930F93FF92EF92DF92CF92BF92B3
:10030000AF929F928F927F926F925F924F923F92A5
:100310002F921F920F92E0918D0BF0918E0B8DB763
:100320009EB7F3959183808380918B0B90918C0B7A
:100330009EBF8DBF81E080933902E8E8F0E08081C4
:100340009181805F984D9183808380918B0B9091F8
:100350008C0B9EBF8DBF0F901F902F903F904F90A2
:100360005F906F907F908F909F90AF90BF90CF9055
:10037000DF90EF90FF900F911F912F913F914F9140
:100380005F916F917F918F919F91AF91BF91CF912D
:10039000DF91EF91FF91FFBFFF91FCBFFF910895A7
:1003A000F89480EF8AB980910002863028F4809119
:1003B00000028F5F30E604C080910002855030E972
:1003C00040EF4BB994E62FE758E361E021505040ED
:1003D0006040E1F700C000009150A9F71BB898E217
:1003E0007FE728E351E0715020405040E1F700C022
:1003F00000009150A9F79817E1F03BB92AE06FE7A8
:1004000078E351E0615070405040E1F700C00000D7
:100410002150A9F71BB82AE06FE778E351E061505B
:1004200070405040E1F700C000002150A9F79F5FE5
:10043000E2CF94E16FE778E321E061507040204023
:10044000E1F700C000009150A9F7BBCF60912D02E9
:1004500070912E026115710569F08091370282302A
:1004600071F480913802882341F0809138028930FC
:1004700020F405C080E090E0089581E01EC08091E6
:100480003702823041F4E0913802F0E0EA5FFD4F3C
:100490008081882389F080913702823089F4E0914D
:1004A0003802F0E0EE0FFF1FE15FFD4F8081918188
:1004B000892B31F083E001C084E08093000270DF7B
:1004C00080913702882361F0FB01E95FFE4F808154
:1004D000918190932E0280932D021182108202C08E
:1004E00062E87AE0FB01E452FF4F108280E87E96DA
:1004F000808333961082809133029091340231963A
:1005000090838091330290913402319680838BE501
:1005100091E033968083CB0186529F4FDB01B395E8
:1005200011969C938E9382E013968C938091350262
:1005300090913602119611969C938E93809137027A
:1005400012968C938091380280838091370282309A
:1005500039F0833079F0813081F489E292E00CC087
:10056000E0913802F0E0EE0FFF1FE15FFD4F718375
:10057000608303C085E292E088DE81E090E0089528
:10058000CF93DF931F92CDB7DEB780918100826059
:100590008093810000910302109104029801220FC0
:1005A000331F40E051E0842F90E08217930778F4E6
:1005B000FC01EF5FFD4FE081E93030F4F0E0EA5FED
:1005C000FD4F50834E5FEFCF10920002FEC0EDE36F
:1005D000F3E0AFE0B2E010821D921D92CF010696CB
:1005E00095838483E75FFE4F2AE0EC37F20799F7A3
:1005F0001092810A1092800AEAE3EE2EE2E0FE2ECB
:10060000F0922E02E0922D0289E799E09093300259
:1006100080932F0282E990E090933402809333021A
:100620001092370213DF84EC94E0909334028093AD
:10063000330283E08093370209DFF0928E0BE09261
:100640008D0B81E080933D03E0912502F09126021D
:10065000309751F0E95FFE4F80819181909326029F
:1006600080932502118210820115110521F08091DD
:1006700002028093240280916F00826080936F0059
:100680008091840090918500805F984D90938900BF
:100690008093880082E086BBBB24B39452E8E52EA9
:1006A0005AE0F52E62E0A62E6801CC0CDD1C80918C
:1006B0008D0B90918E0BFC01ED5FFE4F2081213060
:1006C00021F482589A4009F048C080912502909107
:1006D0002602009751F0FC01E95FFE4F2081318135
:1006E000309326022093250226C080912302811197
:1006F00013C00115110581F0E0912102F091220251
:10070000EF5FFD4FE081F0E0EE0FFF1FE15FFD4F77
:1007100080819181009789F48091290290912A0229
:10072000009781F0FC01E95FFE4F20813181309319
:100730002A02209329021182108290938E0B8093BB
:100740008D0B04C0F0928E0BE0928D0BE0918D0B1F
:10075000F0918E0BED5FFE4FB082E5DC2091390207
:10076000223009F46DC080908D0B90908E0B233059
:1007700030F4222309F4D9C0213051F0D4C0243000
:1007800009F4B6C008F499C0253009F4CEC0CBC036
:100790000115110509F445C0809124028150809310
:1007A00024028091240281113CC08114910471F0D3
:1007B000F401EA5FFE4F8081823041F48091230290
:1007C000811104C088E080930002EADD809121025B
:1007D0009091220202968C159D0528F49093220296
:1007E0008093210204C01092220210922102E09113
:1007F0002102F0912202EF5FFD4F8181809324025C
:10080000E081EE2349F0F0E0EE0FFF1FE15FFD4FC6
:1008100080819181892B19F4B092230202C0109239
:100820002302F401EA5FFE4F8081813009F07DC030
:1008300033978081813009F078C0A082B4013AC03A
:10084000298304DE90933202809331028091310239
:10085000909132022981892B09F467C08091370277
:1008600060918D0B70918E0B833039F4FB01EA5F40
:10087000FE4F8081833009F05BC0FB01EA5FFE4FD1
:100880008081813009F051C080913702DB01AD5F7A
:10089000BE4F823061F490913802E0912102F091D4
:1008A0002202EF5FFD4F2081291301C08C938C91B0
:1008B0008230D9F589E292E019C0F2E88F16FAE0A9
:1008C0009F0699F1F401ED5FFE4F1082339680810F
:1008D000823049F43497E081F0E0EE0FFF1FE15FD2
:1008E000FD4F11821082B4018DE292E0CEDC1DC07A
:1008F000F401EA5FFE4F8081823061F0833031F095
:10090000813061F4B40189E292E007C0B40185E26C
:1009100092E003C0B092230201C0B7DCF401ED5FA6
:10092000FE4FA08202C08FEF4ECF10923902BFCE91
:10093000FB01ED5FFE4F2083A0CFCF93CFB7F8949C
:1009400090933402809333027093360260933502A1
:10095000409337022093380282E0809339023CDCD6
:100960008091310290913202CFBFCF91089508DE7D
:1009700080E884B98FE39CE90197F1F700C000009B
:1009800085B1805885B9F6CF20E030E041E050E0F5
:1009900060E070E088EB94E0D0DF81E090E00895C3
:0409A000F894FFCFF9
:0609A4000601FF01000046
:00000001FF
