:1000000071C000008FC000008DC000008BC00000D8
:1000100089C0000087C0000085C0000083C00000C8
:1000200081C000007FC000007DC000007BC00000D8
:1000300079C0000077C0000075C0000073C00000E8
:1000400071C00000F2C100006DC000006BC0000074
:1000500069C0000067C0000065C0000063C0000008
:1000600061C000002FC600005DC000005BC0000042
:1000700059C0000057C0000055C0000053C0000028
:1000800051C000004FC000004DC000004BC0000038
:1000900049C0000047C0000045C0000043C0000048
:1000A00041C000003FC000003DC000003BC0000058
:1000B00039C0000037C0000035C0000033C0000068
:1000C00031C000002FC000002DC000002BC0000078
:1000D00029C0000027C0000025C0000023C0000088
:1000E00021C0000011241FBECFEFD1E2DEBFCDBF83
:1000F00000E00CBF12E0A0E0B2E0E0E8F5E100E0D3
:100100000BBF02C007900D92A231B107D9F72EE0C4
:10011000A2E1B2E001C01D92A039B207E1F7D2D44A
:100120000C94BE0A6DCFFFCFFF93FCB7FF93FFB7D0
:10013000F894FF93EF93DF93CF93BF93AF939F9385
:100140008F937F936F935F934F933F932F931F935F
:100150000F93FF92EF92DF92CF92BF92AF929F9256
:100160008F927F926F925F924F923F922F921F9247
:100170000F928DB79EB79093FC0B8093FB0BE09191
:10018000FD0BF091FE0BF395808191819EBF8DBF99
:100190000F901F902F903F904F905F906F907F90A7
:1001A0008F909F90AF90BF90CF90DF90EF90FF9097
:1001B0000F911F912F913F914F915F916F917F917F
:1001C0008F919F91AF91BF91CF91DF91EF91FF916F
:1001D000FFBFFF91FCBFFF910895FF93FCB7FF9312
:1001E000FFB7F894FF93EF93DF93CF93BF93AF9351
:1001F0009F938F937F936F935F934F933F932F932F
:100200001F930F93FF92EF92DF92CF92BF92AF9224
:100210009F928F927F926F925F924F923F922F9216
:100220001F920F92E091FD0BF091FE0B8DB79EB7E0
:10023000F395918380838091FB0B9091FC0B9EBF83
:100240008DBF0F901F902F903F904F905F906F90B9
:100250007F908F909F90AF90BF90CF90DF90EF9066
:10026000FF900F911F912F913F914F915F916F914F
:100270007F918F919F91AF91BF91CF91DF91EF913E
:10028000FF91FFBFFF91FCBFFF910895FC01DB01CF
:10029000A05FBE4F1D921C9280819181892B19F421
:1002A0007183608306C0A281B381A05FBE4F6D934E
:1002B0007C93738362830895CF93CFB7F89483E0E0
:1002C000809346028ADFCFBFCF910895DC018D91E4
:1002D0009C911197009749F0FC01E05FFE4F20814F
:1002E00031812D933C9311821082089580913102C7
:1002F00090913202892B09F492C080913B028823AD
:1003000029F081E392E0E2DFBC0102C067EE7AE00F
:10031000FB01E752FF4F108280E87E968083339680
:1003200010828091370290913802319690838091AB
:1003300037029091380231968083319610828CE595
:1003400091E031969083319680833196CB0189522A
:100350009F4F9183808382E03C9680838091390215
:1003600090913A0231969183808380913B0232963C
:1003700080838091400290914102399791838083DC
:1003800080914202909143023296918380838091C2
:1003900044029091450232969183808380913C0281
:1003A00090913D0236979183808380913E02909197
:1003B0003F0232979183808380913B02823051F0DB
:1003C000833029F0813071F58DE292E026C085E21C
:1003D00092E023C0FB01E05FFE4F1182108280910A
:1003E000290290912A023296892B39F411821082C7
:1003F00070932A02609329020BC080912B02909186
:100400002C02DC01A05FBE4F6D937C9391838083AF
:1004100070932C0260932B0205C038DF03C080E08C
:1004200090E0089581E090E00895FF93FCB7FF937A
:10043000FFB7F894F068FF93EF93DF93CF93BF93E8
:10044000AF939F938F937F936F935F934F933F935C
:100450002F931F930F93FF92EF92DF92CF92BF9251
:10046000AF929F928F927F926F925F924F923F9244
:100470002F921F920F92E091FD0BF091FE0B8DB722
:100480009EB7F395918380838091FB0B9091FC0B39
:100490009EBF8DBF81E080934602E8E8F0E0808156
:1004A0009181805F984D918380838091FB0B909127
:1004B000FC0B9EBF8DBF0F901F902F903F904F90D1
:1004C0005F906F907F908F909F90AF90BF90CF90F4
:1004D000DF90EF90FF900F911F912F913F914F91DF
:1004E0005F916F917F918F919F91AF91BF91CF91CC
:1004F000DF91EF91FF91FFBFFF91FCBFFF91089546
:10050000F89480E68093010180910002863028F4FF
:10051000809100028F5F30E404C08091000285501A
:1005200030E240E64093020194E62FE758E361E0B1
:10053000215050406040E1F700C000009150A9F701
:100540001092020198E27FE728E351E071502040C9
:100550005040E1F700C000009150A9F79817F1F062
:10056000309302012AE06FE778E351E06150704078
:100570005040E1F700C000002150A9F7109202019D
:100580002AE06FE778E351E0615070405040E1F7B6
:1005900000C000002150A9F79F5FE0CF94E16FE712
:1005A00078E321E0615070402040E1F700C0000096
:1005B0009150A9F7B7CFCF93DF931F92CDB7DEB796
:1005C00080918100826080938100E3E5F3E0A2E105
:1005D000B2E010821D921D92CF010896958384830C
:1005E000EC5EFE4F2AE0EF3DF20799F71092E40A25
:1005F0001092E30A07E412E01093320200933102F2
:1006000083ED99E0909334028093330283E990E084
:10061000909338028093370210923B0267DE8CE899
:1006200095E0909338028093370283E080933B02F9
:100630005DDE1093FE0B0093FD0B81E0809353036E
:1006400085E292E043DE80916F00826080936F00CC
:100650008091840090918500805F984D90938900EF
:100660008093880082E086BBEE24E39407EE1AE0D4
:1006700082E0F82E8091FD0B9091FE0BFC01E45F6F
:10068000FE4F2081213021F4875E9A4009F058C046
:100690008091250290912602892B19F085E292E043
:1006A0003EC08091290290912A02009781F120E0BA
:1006B00030E040E050E0FC01EC5FFE4F6081718172
:1006C0001616170684F0DC01AA5FBE4F2D913C91EF
:1006D0003183208334962081318136973183208382
:1006E0004F5F5F4F9C014230510514F08BE05EC0BC
:1006F000FC01E05FFE4F808191810097E1F62115BA
:10070000310529F03093FE0B2093FD0B12C0809130
:100710002D0290912E02892B41F08DE292E0D6DDE0
:100720009093FE0B8093FD0B04C01093FE0B00937F
:10073000FD0BE091FD0BF091FE0BE45FFE4FE082BC
:10074000F3DC20914602223009F453C0C090FD0B27
:10075000D090FE0B233030F4222309F4F3C0213073
:1007600051F0E8C0243009F4D0C008F461C025304D
:1007700009F4E8C0DFC0809124028F5F80932402D7
:10078000F601E15FFE4F4081423099F4339780815A
:10079000813079F43A9780819181019791838083A8
:1007A000369680819181892B21F488E08093000224
:1007B000A7DE8091290290912A02009769F0FC013E
:1007C000EC5FFE4F2081318121503109318320833C
:1007D0003C9680819181F1CF413009F0B3C0F601A0
:1007E000E45FFE4F8081813009F0ACC0F082B60139
:1007F000B6C029837BDD90933602809335028091C9
:100800003502909136022981892B09F49BC06091B1
:10081000FD0B7091FE0BFB01E15FFE4F8081833089
:1008200009F490C090913B02933009F08EC084C0CF
:10083000F7EECF16FAE0DF0609F484C0F601E45FB4
:10084000FE4F108233968081823009F059C080912A
:10085000290290912A028C159D0571F43196208110
:1008600031812115310541F030932A02209329026C
:10087000F901EE5EFE4F16C020912B0230912C0242
:100880002C153D0519F5F601EE5EFE4F20813181F4
:100890002115310551F030932C0220932B02F901E0
:1008A000E05FFE4F118210822BC08C159D0571F404
:1008B00010922C0210922B0210922A0210922902FE
:1008C0001FC0FC01E05FFE4F808191810097C1F065
:1008D0008C159D05B1F7F601EE5EFE4F808191818A
:1008E000FC01E05FFE4FA081B181A05FBE4F2D9162
:1008F0003C9131832083F901EE5EFE4F918380832A
:10090000B60181E392E0C2DC1DC0F601E15FFE4F5B
:100910008081813031F0833041F4B60185E292E08C
:1009200003C0B6018DE292E0B1DCF601E45FFE4F58
:10093000F08208C08FEF3ACFFB01E45FFE4F2083C7
:10094000813069F01092460295CE8130D9F78091BE
:100950003B028230B9F7FB01E45FFE4F80838DE2FA
:1009600092E0D1CFCF93CFB7F89480E190E0E6D179
:10097000FC011786168615861486CFBFCF91089581
:10098000CF93CFB7F8942091FD0B3091FE0BF90176
:10099000E15FFE4F40814230E9F0FC01468557851A
:1009A00043305105BCF4FA01EE0FFF1FE80FF91FA9
:1009B00031832083778366834F5F5F4FFC015787C6
:1009C0004687F901E45FFE4F83E0808306DCCFBFFA
:1009D000CF9108958AE08093000292DDCF93DF9358
:1009E000DC014FB7F8941D967C936E931C97FC0125
:1009F00080E090E052E01E962D913C911F97821767
:100A000093077CF4C681D781798368831782168225
:100A1000C081D181C45FDE4F58831192119201963B
:100A2000EACF1F961C921E921E974FBFDF91CF9167
:100A30000895CF93CFB7F8949093380280933702FC
:100A400070933A026093390283E080933B0282E024
:100A500080934602C2DB8091350290913602CFBF6F
:100A6000CF9108950F931F93CF93CFB7F89490939E
:100A700038028093370270933A026093390282E021
:100A800080933B02509341024093400230934302D3
:100A900020934202109345020093440210933D02BA
:100AA00000933C0230933F0220933E028093460223
:100AB00094DB8091350290913602CFBFCF911F9188
:100AC0000F91089578DDCF93DF931F921F92CDB7DA
:100AD000DEB781E090E09A838983ABD0BE016F5F7F
:100AE0007F4F8091FF0B9091000C4ADF89819A81A2
:100AF000A0D00F900F90DF91CF91089582E090E009
:100B000098D065E070E08091FF0B9091000C66DF5B
:100B100082E090E08ED034C00F931F9323DF909338
:100B2000000C8093FF0BBCD08DE09FD080E090E064
:100B300080D060E070E083E695E07BDF60E070E00D
:100B400083E695E076DF60E070E083E695E071DFB4
:100B500060E070E083E695E06CDF05E010E025E002
:100B600030E044E150E060E070E08EE795E07ADF4D
:100B700080E090E05ED081E090E01F910F910895B9
:100B8000CF92DF92EF92FF920F931F93CF93DF9359
:100B90008091240E1F928F9387E092E09F938F9312
:100BA00081E09CE09F938F9327D2BC0181E09CE081
:100BB00073D0C3E2DCE00F900F900F900F900F9076
:100BC0000F9000E010E08EE0E82E82E0F82E91E039
:100BD000C92E9CE0D92E8091210C9091220C0817EF
:100BE0001907BCF48881998122969F938F93FF9275
:100BF000EF92DF92CF9200D2BC0181E09CE04CD01A
:100C00000F5F1F4F0F900F900F900F900F900F904E
:100C1000E2CF81E08093230E1092220C1092210CDF
:100C2000DF91CF911F910F91FF90EF90DF90CF90C8
:100C300008952091210C3091220C2F3F310509F0AD
:100C400098F4E091210CF091220CEE0FFF1FED5D66
:100C5000F34F918380838091210C9091220C019617
:100C60009093220C8093210C08958093240E089574
:100C7000F8949091C00095FFFCCF8093C6007894C3
:100C80000895CF93DF93EC018991882311F0F0DF71
:100C9000FBCFDF91CF910895F4DF80E090E00895DD
:100CA00010928B0E10928A0E1092250E1092C50093
:100CB00087E68093C40088E98093C1008EE080932A
:100CC000C20008951F920F920FB60F9211240BB617
:100CD0000F925F936F937F938F939F93AF93BF9385
:100CE000EF93FF938091C00087FFFCCFE0918A0EC5
:100CF000F0918B0E8091C600EA5DF14F8083809168
:100D00008A0E90918B0E019664E670E04ED190931E
:100D10008B0E80938A0E81E08093250EFF91EF91D8
:100D2000BF91AF919F918F917F916F915F910F9044
:100D30000BBE0F900FBE0F901F90189501C0089525
:100D40000F931F93CF93DF93BC018230910510F472
:100D500062E070E0E0918E0EF0918F0E40E050E086
:100D6000A0E0B0E024C08081918186179707D0F081
:100D70008617970771F482819381109729F0139653
:100D80009C938E9312972CC090938F0E80938E0E0F
:100D900027C04115510519F08417950718F48D01E6
:100DA000AC01EF01DF01828193819C01F901309751
:100DB000D1F641155105F9F0CA01861B970B843015
:100DC000910580F48A819B810115110521F0F801BC
:100DD0009383828304C090938F0E80938E0EFE01C6
:100DE000329645C0FE01E80FF91F61937193029797
:100DF000998388833CC080918C0E90918D0E892BB5
:100E000041F4809103029091040290938D0E80939F
:100E10008C0E40910502509106024115510541F496
:100E20004DB75EB78091010290910202481B590BA9
:100E300020918C0E30918D0E24173507B0F4CA0125
:100E4000821B930B8617970780F0AB014E5F5F4FB5
:100E50008417950750F0420F531F50938D0E409307
:100E60008C0EF9016193719302C0E0E0F0E0CF01D4
:100E7000DF91CF911F910F910895CF93DF939C0144
:100E8000009709F48FC0EC0122971B821A826091AF
:100E90008E0E70918F0E6115710581F48881998194
:100EA000820F931F20918C0E30918D0E28173907D9
:100EB00039F5D0938D0EC0938C0E74C0DB0140E0E9
:100EC00050E0AC17BD0708F1BB83AA83FE01219156
:100ED0003191E20FF31FAE17BF0779F48D919C910A
:100EE0001197280F391F2E5F3F4F398328831296A1
:100EF0008D919C9113979B838A834115510571F4C1
:100F0000D0938F0EC0938E0E4DC012968D919C91F2
:100F10001397AD01009711F0DC01D3CFDA011396DE
:100F2000DC93CE931297FA0121913191E20FF31FD6
:100F3000CE17DF0769F488819981280F391F2E5F4A
:100F40003F4FFA01318320838A819B81938382837F
:100F5000E0E0F0E0DB0112968D919C9113970097F1
:100F600019F0BC01FD01F6CFAB014E5F5F4FDB0115
:100F70008D919C91840F951F20918C0E30918D0E38
:100F80002817390779F4309729F410928F0E1092B0
:100F90008E0E02C0138212824250504050938D0E2A
:100FA00040938C0EDF91CF91089597FB072E16F496
:100FB000009406D077FD08D00BD007FC05D03EF496
:100FC000909581959F4F0895709561957F4F0895F5
:100FD000AA1BBB1B51E107C0AA1FBB1FA617B7075F
:100FE00010F0A61BB70B881F991F5A95A9F780957B
:100FF0009095BC01CD0108950F931F93CF93DF937C
:10100000CDB7DEB72E970FB6F894DEBF0FBECDBFBB
:101010000E891F8986E08C831A8309838FEF9FE7EF
:101020009E838D83AE01465E5F4F688D798DCE01C4
:10103000019610D0EF81F885E00FF11F10822E96F7
:101040000FB6F894DEBF0FBECDBFDF91CF911F91D9
:101050000F9108952F923F924F925F926F927F92DD
:101060008F929F92AF92BF92CF92DF92EF92FF92B8
:101070000F931F93CF93DF93CDB7DEB72C970FB6A7
:10108000F894DEBF0FBECDBF7C016B018A01FC016D
:1010900017821682838181FFB0C1CE0101964C0177
:1010A000F7019381F60193FD859193FF81916F0183
:1010B000882309F49EC1853239F493FD859193FF0D
:1010C00081916F01853221F4B70190E0C7D1E8CF5B
:1010D000512C312C20E02032A0F48B3269F030F416
:1010E000803259F0833269F420612CC08D3239F09E
:1010F000803339F4216026C02260246023C0286038
:1011000021C027FD27C030ED380F3A3078F426FF94
:1011100006C0FAE05F9E300D1124532E13C08AE002
:10112000389E300D1124332E20620CC08E3221F4F3
:1011300026FD5FC1206406C08C3611F4206802C011
:10114000883641F4F60193FD859193FF81916F01FB
:101150008111C1CF982F9F7D9554933028F40C5F57
:101160001F4FFFE3F9830DC0833631F0833771F0F1
:10117000833509F057C021C0F801808189830E5F53
:101180001F4F44244394512C540114C03801F2E001
:101190006F0E711CF801A080B18026FF03C0652D81
:1011A00070E002C06FEF7FEFC5012C874CD12C019E
:1011B00083012C852F77222E16C03801F2E06F0EA6
:1011C000711CF801A080B18026FF03C0652D70E07E
:1011D00002C06FEF7FEFC5012C872AD12C012C852F
:1011E0002068222E830123FC19C0832D90E048162D
:1011F0005906A0F4B70180E290E030D13A94F5CFDF
:10120000F50127FC859127FE81915F01B70190E0F0
:1012100025D131103A94F1E04F1A5108411451048C
:1012200079F7DEC0843611F0893631F5F80127FFF1
:1012300007C060817181828193810C5F1F4F08C05C
:1012400060817181882777FD8095982F0E5F1F4FF1
:101250002F76B22E97FF09C0909580957095619575
:101260007F4F8F4F9F4F2068B22E2AE030E0A401BD
:1012700027D1A82EA81843C0853729F42F7EB22E77
:101280002AE030E025C0F22FF97FBF2E8F36C1F063
:1012900018F4883579F0ADC0803719F0883721F01F
:1012A000A8C02F2F2061B22EB4FE0DC08B2D8460FC
:1012B000B82E09C024FF0AC09F2F9660B92E06C021
:1012C00028E030E005C020E130E002C020E132E05B
:1012D000F801B7FE07C060817181828193810C5F44
:1012E0001F4F06C06081718180E090E00E5F1F4F4C
:1012F000A401E6D0A82EA818FB2DFF77BF2EB6FEBE
:101300000BC02B2D2E7FA51450F4B4FE0AC0B2FCE6
:1013100008C02B2D2E7E05C07A2C2B2D03C07A2CD5
:1013200001C0752C24FF0DC0FE01EA0DF11D808166
:10133000803311F4297E09C022FF06C07394739490
:1013400004C0822F867809F0739423FD12C020FF19
:1013500006C05A2C731418F4530C5718732C7314BA
:1013600060F4B70180E290E02C8778D073942C85EC
:10137000F6CF731410F4371801C0312C24FF11C0BC
:10138000B70180E390E02C8769D02C8522FF16C03E
:1013900021FF03C088E590E002C088E790E0B70134
:1013A0000CC0822F867851F021FD02C080E201C07E
:1013B0008BE227FD8DE2B70190E050D0A51430F408
:1013C000B70180E390E04AD05A94F8CFAA94F40190
:1013D000EA0DF11D8081B70190E040D0A110F6CF59
:1013E000332009F45DCEB70180E290E037D03A9423
:1013F000F7CFF7018681978102C08FEF9FEF2C9680
:101400000FB6F894DEBF0FBECDBFDF91CF911F9115
:101410000F91FF90EF90DF90CF90BF90AF909F9093
:101420008F907F906F905F904F903F902F90089596
:10143000FC010590615070400110D8F7809590959F
:101440008E0F9F1F0895FC016150704001900110A4
:10145000D8F7809590958E0F9F1F08950F931F9337
:10146000CF93DF93182F092FEB018B8181FD03C0F0
:101470008FEF9FEF20C082FF10C04E815F812C81D3
:101480003D81421753077CF4E881F9819F012F5F6A
:101490003F4F39832883108306C0E885F985812F63
:1014A0001995892B29F72E813F812F5F3F4F3F836D
:1014B0002E83812F902FDF91CF911F910F9108954F
:1014C000FA01AA27283051F1203181F1E8946F9375
:1014D0006E7F6E5F7F4F8F4F9F4FAF4FB1E03ED01B
:1014E000B4E03CD0670F781F891F9A1FA11D680FB9
:1014F000791F8A1F911DA11D6A0F711D811D911DEC
:10150000A11D20D009F468943F912AE0269F112460
:101510003019305D3193DEF6CF010895462F4770C4
:10152000405D4193B3E00FD0C9F7F6CF462F4F701F
:10153000405D4A3318F0495D31FD4052419302D07D
:10154000A9F7EACFB4E0A695979587957795679523
:10155000BA95C9F700976105710508959B01AC0123
:101560000A2E06945795479537952795BA95C9F74A
:10157000620F731F841F951FA01D0895F894FFCF5D
:10158000068000900E000054253033643B00257522
:021590003B001E
:00000001FF
