S010000070726F6A656374322E73726563EB
S113000071C000008EC000008CC000008AC00000D7
S113001088C0000086C0000084C0000082C00000C8
S113002080C000007EC000007CC000007AC00000D8
S113003078C0000076C0000074C0000072C00000E8
S113004070C00000C9C100006CC000006AC000009C
S113005068C0000066C0000064C0000062C0000008
S113006060C000005EC000005CC000005AC0000018
S113007058C0000056C0000054C0000052C0000028
S113008050C000004EC000004CC000004AC0000038
S113009048C0000046C0000044C0000042C0000048
S11300A040C000003EC000003CC000003AC0000058
S11300B038C0000036C0000034C0000032C0000068
S11300C030C000002EC000002CC000002AC0000078
S11300D028C0000026C0000024C0000022C0000088
S11300E020C0000011241FBECFEFD1E2DEBFCDBF80
S11300F000E00CBF12E0A0E0B2E0E0E4FAE000E0CF
S11301000BBF02C007900D92A230B107D9F72BE0C4
S1130110A2E0B2E001C01D92AB3CB207E1F763D4A8
S11301208DC46ECFFFCFFF93FCB7FF93FFB7F89456
S1130130FF93EF93DF93CF93BF93AF939F938F93EB
S11301407F936F935F934F933F932F931F930F93DB
S1130150FF92EF92DF92CF92BF92AF929F928F92D3
S11301607F926F925F924F923F922F921F920F92C3
S11301708DB79EB79093C60B8093C50BE091C90BC6
S1130180F091CA0BF395808191819EBF8DBF0F9032
S11301901F902F903F904F905F906F907F908F9023
S11301A09F90AF90BF90CF90DF90EF90FF900F9112
S11301B01F912F913F914F915F916F917F918F91FB
S11301C09F91AF91BF91CF91DF91EF91FF91FFBFCD
S11301D0FF91FCBFFF910895FF93FCB7FF93FFB716
S11301E0F894FF93EF93DF93CF93BF93AF939F93D1
S11301F08F937F936F935F934F933F932F931F93AB
S11302000F93FF92EF92DF92CF92BF92AF929F92A1
S11302108F927F926F925F924F923F922F921F9292
S11302200F92E091C90BF091CA0B8DB79EB7F3956D
S1130230918380838091C50B9091C60B9EBF8DBF27
S11302400F901F902F903F904F905F906F907F90F2
S11302508F909F90AF90BF90CF90DF90EF90FF90E2
S11302600F911F912F913F914F915F916F917F91CA
S11302708F919F91AF91BF91CF91DF91EF91FF91BA
S1130280FFBFFF91FCBFFF910895FC01DB01A45F58
S1130290BE4F1D921C9280819181892B19F4718328
S11302A0608306C0A281B381A45FBE4F6D937C932B
S11302B0738362830895CF93CFB7F89483E08093D8
S11302C034028ADFCFBFCF910895DC018D919C91D8
S11302D01197009749F0FC01E45FFE4F20813181C2
S11302E02D933C9311821082089580912302909162
S11302F02402892B09F46AC080912D02882329F0F5
S113030083E292E0E2DFBC0102C065EB7AE0FB012C
S1130310E452FF4F108280E87E96808333961082E9
S11303208091290290912A0231969083809129022A
S113033090912A02319680838BE591E033968083F5
S1130340CB0186529F4F32979183808382E0389607
S1130350808380912B0290912C023196918380832B
S113036080912D023296808380912D02823039F063
S1130370833041F1813069F58FE192E025C0FB01C2
S1130380E45FFE4F1182108280911B0290911C0247
S11303903296892B39F41182108270931C02609377
S11303A01B020BC080911D0290911E02DC01A45F10
S11303B0BE4F6D937C939183808370931E026093F0
S11303C01D0207C087E192E060DF03C080E090E097
S11303D0089581E090E00895FF93FCB7FF93FFB781
S11303E0F894F068FF93EF93DF93CF93BF93AF93A9
S11303F09F938F937F936F935F934F933F932F9329
S11304001F930F93FF92EF92DF92CF92BF92AF921E
S11304109F928F927F926F925F924F923F922F9210
S11304201F920F92E091C90BF091CA0B8DB79EB742
S1130430F395918380838091C50B9091C60B9EBFE9
S11304408DBF81E080933402E8E8F0E080819181FF
S1130450805F984D918380838091C50B9091C60BEA
S11304609EBF8DBF0F901F902F903F904F905F9035
S11304706F907F908F909F90AF90BF90CF90DF90C0
S1130480EF90FF900F911F912F913F914F915F91AA
S11304906F917F918F919F91AF91BF91CF91DF9198
S11304A0EF91FF91FFBFFF91FCBFFF910895F89476
S11304B080EF8AB980910002863028F4809100028E
S11304C08F5F30E604C080910002855030E940EF30
S11304D04BB994E62FE758E361E021505040604067
S11304E0E1F700C000009150A9F71BB898E27FE73C
S11304F028E351E0715020405040E1F700C0000073
S11305009150A9F79817E1F03BB92AE06FE778E337
S113051051E0615070405040E1F700C000002150AC
S1130520A9F71BB82AE06FE778E351E06150704007
S11305305040E1F700C000002150A9F79F5FE2CFCF
S113054094E16FE778E321E0615070402040E1F7E7
S113055000C000009150A9F7BBCFCF93DF931F9247
S1130560CDB7DEB780918100826080938100EDE396
S1130570F3E0A2E0B2E010821D921D92CF01089632
S113058095838483E05FFE4F8AE0ED3AF80799F79C
S11305901092B20A1092B10A05E312E010932402F9
S11305A00093230285EA99E0909326028093250222
S11305B082E990E090932A028093290210922D02FE
S11305C094DE80E095E090932A028093290283E0F0
S11305D080932D028ADE1093CA0B0093C90B81E02D
S11305E080933D0387E192E070DE80916F0082602A
S11305F080936F008091840090918500805F984D76
S1130600909389008093880082E086BBFF24F39452
S113061005EB1AE082E0E82E94E6D92E24E1C22EFE
S11306204091C90B5091CA0BFA01E85FFE4F8081DB
S1130630813029F4EAE0453B5E0709F046C0209189
S11306401702309118022115310519F087E192E063
S11306502BC080911B0290911C020097E9F0411578
S1130660510571F0FC01E45FFE4F8417950719F4FE
S11306702081318106C080819181009799F701C062
S11306809C013093CA0B2093C90BF901EE5FFE4F16
S113069080818093160212C080911F0290912002E3
S11306A0892B41F08FE192E010DE9093CA0B809386
S11306B0C90B04C01093CA0B0093C90BE091C90B7A
S11306C0F091CA0BE85FFE4FF0822DDD20913402D9
S11306D0223009F479C030F4222309F454C12130C2
S11306E071F04DC1A090C90BB090CA0B243009F42D
S11306F009C108F49AC0253009F445C140C180916C
S113070015028F5F809315028091160281508093A9
S113071016028091160281112FC02091C70B3091CF
S1130720C80B2115310529F41092C80B1092C70B80
S11307301BC0809115026C2D75D1892F90E0F901B1
S1130740EA5FFE4F408151814817590769F430939D
S1130750CA0B2093C90B1092C80B1092C70B349785
S11307608081809316021EC08FE192E0AEDD9093EB
S1130770CA0B8093C90B16C0909116028091150282
S1130780E091C90BF091CA0BEA5FFE4F20813181E1
S1130790290F311D6D2D46D1892F90E082179307C3
S11307A008F4F0C06091C90B7091CA0BFB01E55FBE
S11307B0FE4F8081813009F0E6C03397808181301B
S11307C009F0E1C0E0822EC029838FDD90932802D6
S11307D08093270280912702909128022981892BF6
S11307E009F4D1C030912D026091C90B7091CA0BEC
S11307F0333039F4FB01E55FFE4F3081333009F0CB
S1130800C5C0FB01E55FFE4F2081213009F0BBC06C
S113081020912D023397223009F420832081223045
S113082009F0B1C08FE192E06BC0F5EBAF16FAE0CE
S1130830BF0609F4A8C0F501E85FFE4F10823396A5
S11308408081823009F059C080911B0290911C0272
S11308508A159B0571F4319620813181211531056A
S113086041F030931C0220931B02F901E25FFE4F1A
S113087016C020911D0230911E022A153B0519F560
S1130880F501E25FFE4F208131812115310551F0E0
S113089030931E0220931D02F901E45FFE4F118282
S11308A010822BC08A159B0571F410921E021092BF
S11308B01D0210921C0210921B021FC0FC01E45F77
S11308C0FE4F808191810097C1F08A159B05B1F795
S11308D0F501E25FFE4F80819181FC01E45FFE4FF0
S11308E0A081B181A45FBE4F2D913C9131832083BF
S11308F0F901E25FFE4F91838083B50183E292E0C8
S1130900C4DC41C0F501E55FFE4F8081823061F0B7
S1130910833031F0813071F5B5018FE192E029C067
S1130920B50187E192E025C0F0921402F501E45F7D
S1130930FE4F1182108280911B0290911C0232960C
S1130940892B39F411821082B0921C02A0921B02EE
S11309500BC080911D0290911E02DC01A45FBE4F6A
S1130960AD92BC9291838083B0921E02A0921D022C
S113097001C08BDCF501E85FFE4FE08204C08FEF1D
S11309808093000294DD109234024ACEFB01E85FAA
S1130990FE4F208336CF0F931F93CF93CFB7F89496
S11309A090932A028093290270932C0260932B0265
S11309B082E080932D0250932F0240932E023093B5
S11309C03102209330021093330200933202809359
S11309D0340202DC8091270290912802CFBFCF918C
S11309E01F910F910895B9DD80E884B92FEF89E64E
S11309F098E1215080409040E1F700C00000FFCF13
S1130A000F931F9302E010E021E030E044E150E056
S1130A1060E070E084EF94E0BEDF81E090E01F913D
S1130A200F910895991B79E004C0991F961708F057
S1130A30961B881F7A95C9F780950895F894FFCF7F
S1050A400600AA
S9030000FC
