S010000070726F6A656374322E73726563EB
S113000071C000008FC000008DC000008BC00000D4
S113001089C0000087C0000085C0000083C00000C4
S113002081C000007FC000007DC000007BC00000D4
S113003079C0000077C0000075C0000073C00000E4
S113004071C00000F2C100006DC000006BC0000070
S113005069C0000067C0000065C0000063C0000004
S113006061C00000D0C500005DC000005BC000009E
S113007059C0000057C0000055C0000053C0000024
S113008051C000004FC000004DC000004BC0000034
S113009049C0000047C0000045C0000043C0000044
S11300A041C000003FC000003DC000003BC0000054
S11300B039C0000037C0000035C0000033C0000064
S11300C031C000002FC000002DC000002BC0000074
S11300D029C0000027C0000025C0000023C0000084
S11300E021C0000011241FBECFEFD1E2DEBFCDBF7F
S11300F000E00CBF12E0A0E0B2E0E4E5F2E100E0D1
S11301000BBF02C007900D92AC30B107D9F72EE0B7
S1130110ACE0B2E001C01D92A638B207E1F794D476
S11301200C9428096DCFFFCFFF93FCB7FF93FFB763
S1130130F894FF93EF93DF93CF93BF93AF939F9381
S11301408F937F936F935F934F933F932F931F935B
S11301500F93FF92EF92DF92CF92BF92AF929F9252
S11301608F927F926F925F924F923F922F921F9243
S11301700F928DB79EB79093F60B8093F50BE09199
S1130180F70BF091F80BF395808191819EBF8DBFA1
S11301900F901F902F903F904F905F906F907F90A3
S11301A08F909F90AF90BF90CF90DF90EF90FF9093
S11301B00F911F912F913F914F915F916F917F917B
S11301C08F919F91AF91BF91CF91DF91EF91FF916B
S11301D0FFBFFF91FCBFFF910895FF93FCB7FF930E
S11301E0FFB7F894FF93EF93DF93CF93BF93AF934D
S11301F09F938F937F936F935F934F933F932F932B
S11302001F930F93FF92EF92DF92CF92BF92AF9220
S11302109F928F927F926F925F924F923F922F9212
S11302201F920F92E091F70BF091F80B8DB79EB7E8
S1130230F395918380838091F50B9091F60B9EBF8B
S11302408DBF0F901F902F903F904F905F906F90B5
S11302507F908F909F90AF90BF90CF90DF90EF9062
S1130260FF900F911F912F913F914F915F916F914B
S11302707F918F919F91AF91BF91CF91DF91EF913A
S1130280FF91FFBFFF91FCBFFF910895FC01DB01CB
S1130290A05FBE4F1D921C9280819181892B19F41D
S11302A07183608306C0A281B381A05FBE4F6D934A
S11302B07C93738362830895CF93CFB7F89483E0DC
S11302C0809340028ADFCFBFCF910895DC018D91E6
S11302D09C911197009749F0FC01E05FFE4F20814B
S11302E031812D933C9311821082089580912B02C9
S11302F090912C02892B09F492C0809135028823B5
S113030029F08BE292E0E2DFBC0102C061EE7AE008
S1130310FB01E752FF4F108280E87E96808333967C
S113032010828091310290913202319690838091B3
S113033031029091320231968083319610828CE59D
S113034091E031969083319680833196CB01895226
S11303509F4F9183808382E03C9680838091330217
S11303609091340231969183808380913502329644
S1130370808380913A0290913B02399791838083E4
S113038080913C0290913D023296918380838091CA
S11303903E0290913F02329691838083809136028F
S11303A0909137023697918380838091380290919F
S11303B0390232979183808380913502823051F0E3
S11303C0833029F0813071F587E292E026C08FE115
S11303D092E023C0FB01E05FFE4F11821082809106
S11303E02302909124023296892B39F411821082CF
S11303F070932402609323020BC080912502909194
S11304002602DC01A05FBE4F6D937C9391838083B1
S1130410709326026093250205C038DF03C080E094
S113042090E0089581E090E00895FF93FCB7FF9376
S1130430FFB7F894F068FF93EF93DF93CF93BF93E4
S1130440AF939F938F937F936F935F934F933F9358
S11304502F931F930F93FF92EF92DF92CF92BF924D
S1130460AF929F928F927F926F925F924F923F9240
S11304702F921F920F92E091F70BF091F80B8DB72A
S11304809EB7F395918380838091F50B9091F60B41
S11304909EBF8DBF81E080934002E8E8F0E0808158
S11304A09181805F984D918380838091F50B909129
S11304B0F60B9EBF8DBF0F901F902F903F904F90D3
S11304C05F906F907F908F909F90AF90BF90CF90F0
S11304D0DF90EF90FF900F911F912F913F914F91DB
S11304E05F916F917F918F919F91AF91BF91CF91C8
S11304F0DF91EF91FF91FFBFFF91FCBFFF91089542
S1130500F89480E68093010180910002863028F4FB
S1130510809100028F5F30E404C080910002855016
S113052030E240E64093020194E62FE758E361E0AD
S1130530215050406040E1F700C000009150A9F7FD
S11305401092020198E27FE728E351E071502040C5
S11305505040E1F700C000009150A9F79817F1F05E
S1130560309302012AE06FE778E351E06150704074
S11305705040E1F700C000002150A9F71092020199
S11305802AE06FE778E351E0615070405040E1F7B2
S113059000C000002150A9F79F5FE0CF94E16FE70E
S11305A078E321E0615070402040E1F700C0000092
S11305B09150A9F7B7CFCF93DF931F92CDB7DEB792
S11305C080918100826080938100EDE4F3E0ACE0EF
S11305D0B2E010821D921D92CF0108969583848308
S11305E0EC5EFE4F2AE0E93DF20799F71092DE0A2D
S11305F01092DD0A01E412E010932C0200932B0206
S11306008DEC99E090932E0280932D0283E990E083
S113061090933202809331021092350267DE8BE4AC
S113062095E0909332028093310283E08093350207
S11306305DDE1093F80B0093F70B81E080934D037C
S11306408FE192E043DE80916F00826080936F00BF
S11306508091840090918500805F984D90938900EB
S11306608093880082E086BBEE24E39401EE1AE0D6
S113067082E0F82E8091F70B9091F80BFC01E45F77
S1130680FE4F2081213021F4815E9A4009F058C048
S113069080911F0290912002892B19F08FE192E042
S11306A03EC08091230290912402009781F120E0C2
S11306B030E040E050E0FC01EC5FFE4F608171816E
S11306C01616170684F0DC01AA5FBE4F2D913C91EB
S11306D0318320833496208131813697318320837E
S11306E04F5F5F4F9C014230510514F08BE05EC0B8
S11306F0FC01E05FFE4F808191810097E1F62115B6
S1130700310529F03093F80B2093F70B12C0809138
S1130710270290912802892B41F087E292E0D6DDEE
S11307209093F80B8093F70B04C01093F80B00938D
S1130730F70BE091F70BF091F80BE45FFE4FE082CA
S1130740F3DC20914002223009F453C0C090F70B2F
S1130750D090F80B233030F4222309F4F3C0213075
S113076051F0E8C0243009F4D0C008F461C0253049
S113077009F4E8C0DFC080911E028F5F80931E02DF
S1130780F601E15FFE4F4081423099F43397808156
S1130790813079F43A9780819181019791838083A4
S11307A0369680819181892B21F488E08093000220
S11307B0A7DE8091230290912402009769F0FC0146
S11307C0EC5FFE4F20813181215031093183208338
S11307D03C9680819181F1CF413009F0B3C0F6019C
S11307E0E45FFE4F8081813009F0ACC0F082B60135
S11307F0B6C029837BDD9093300280932F028091D1
S11308002F02909130022981892B09F49BC06091B9
S1130810F70B7091F80BFB01E15FFE4F8081833091
S113082009F490C090913502933009F08EC084C0D1
S1130830F1EECF16FAE0DF0609F484C0F601E45FB6
S1130840FE4F108233968081823009F059C0809126
S11308502302909124028C159D0571F43196208118
S113086031812115310541F0309324022093230274
S1130870F901EE5EFE4F16C020912502309126024A
S11308802C153D0519F5F601EE5EFE4F20813181F0
S11308902115310551F03093260220932502F901E8
S11308A0E05FFE4F118210822BC08C159D0571F400
S11308B01092260210922502109224021092230212
S11308C01FC0FC01E05FFE4F808191810097C1F061
S11308D08C159D05B1F7F601EE5EFE4F8081918186
S11308E0FC01E05FFE4FA081B181A05FBE4F2D915E
S11308F03C9131832083F901EE5EFE4F9183808326
S1130900B6018BE292E0C2DC1DC0F601E15FFE4F4E
S11309108081813031F0833041F4B6018FE192E07F
S113092003C0B60187E292E0B1DCF601E45FFE4F5A
S1130930F08208C08FEF3ACFFB01E45FFE4F2083C3
S1130940813069F01092400295CE8130D9F78091C0
S113095035028230B9F7FB01E45FFE4F808387E202
S113096092E0D1CFCF93CFB7F8942091F70B309189
S1130970F80BF901E15FFE4F40814230E9F0FC01E0
S11309804685578543305105BCF4FA01EE0FFF1F2D
S1130990E80FF91F31832083778366834F5F5F4FAE
S11309A0FC0157874687F901E45FFE4F83E08083AB
S11309B014DCCFBFCF9108958AE080930002A0DDBC
S11309C0CF93DF93DC014FB7F8941D967C936E931D
S11309D01C97FC0180E090E052E01E962D913C9122
S11309E01F97821793077CF4C681D7817983688324
S11309F017821682C081D181C45FDE4F5883119261
S1130A0011920196EACF1F961C921E921E974FBF19
S1130A10DF91CF910895CF93CFB7F894909332029A
S1130A2080933102709334026093330283E08093A5
S1130A30350282E080934002D0DB80912F029091B6
S1130A403002CFBFCF910895B6DDCF93DF931F92CD
S1130A501F92CDB7DEB781E090E09A8389838AD074
S1130A60BE016F5F7F4F8091F90B9091FA0B7ADF93
S1130A7081E090E07FD00F900F90DF91CF910895A7
S1130A8080E090E077D01DD065E070E08091F90BB4
S1130A909091FA0B95CFA5D081E088D080E090E0CA
S1130AA069D060E070E085E295E0B5DF60E070E079
S1130AB080E495E0B0DF80E090E05CD081E090E0FD
S1130AC00895CF92DF92EF92FF920F931F93CF93EB
S1130AD0DF9380911E0E1F928F9381E092E09F938B
S1130AE08F938BEF9BE09F938F93F0D0BC018BEFA0
S1130AF09BE073D0CDE1DCE00F900F900F900F904E
S1130B000F900F9000E010E088E0E82E82E0F82ECD
S1130B109BEFC92E9BE0D92E80911B0C90911C0C4D
S1130B2008171907BCF48881998122969F938F93A3
S1130B30FF92EF92DF92CF92C9D0BC018BEF9BE082
S1130B404CD00F5F1F4F0F900F900F900F900F908E
S1130B500F90E2CF81E080931D0E10921C0C109236
S1130B601B0CDF91CF911F910F91FF90EF90DF90BD
S1130B70CF90089520911B0C30911C0C2F3F310510
S1130B8009F098F4E0911B0CF0911C0CEE0FFF1F80
S1130B90E35EF34F9183808380911B0C90911C0C36
S1130BA0019690931C0C80931B0C089580931E0E49
S1130BB00895F8949091C00095FFFCCF8093C600EF
S1130BC078940895CF93DF93EC018991882311F0F1
S1130BD0F0DFFBCFDF91CF910895F4DF80E090E068
S1130BE008951092850E1092840E10921F0E10928A
S1130BF0C50087E68093C40088E98093C1008EE035
S1130C008093C20008951F920F920FB60F92112481
S1130C100BB60F925F936F937F938F939F93AF93D2
S1130C20BF93EF93FF938091C00087FFFCCFE091C7
S1130C30840EF091850E8091C600E05EF14F8083B2
S1130C408091840E9091850E019664E670E017D031
S1130C509093850E8093840E81E080931F0EFF9104
S1130C60EF91BF91AF919F918F917F916F915F9120
S1130C700F900BBE0F900FBE0F901F90189597FB0F
S1130C80072E16F4009406D077FD08D00BD007FC8D
S1130C9005D03EF4909581959F4F08957095619588
S1130CA07F4F0895AA1BBB1B51E107C0AA1FBB1F9E
S1130CB0A617B70710F0A61BB70B881F991F5A95E4
S1130CC0A9F780959095BC01CD0108950F931F93CA
S1130CD0CF93DF93CDB7DEB72E970FB6F894DEBF70
S1130CE00FBECDBF0E891F8986E08C831A830983CA
S1130CF08FEF9FE79E838D83AE01465E5F4F688DC5
S1130D00798DCE01019610D0EF81F885E00FF11FA7
S1130D1010822E960FB6F894DEBF0FBECDBFDF91C2
S1130D20CF911F910F9108952F923F924F925F920E
S1130D306F927F928F929F92AF92BF92CF92DF92E7
S1130D40EF92FF920F931F93CF93DF93CDB7DEB74C
S1130D502C970FB6F894DEBF0FBECDBF7C016B019C
S1130D608A01FC0117821682838181FFB0C1CE0102
S1130D7001964C01F7019381F60193FD859193FF50
S1130D8081916F01882309F49EC1853239F493FD62
S1130D90859193FF81916F01853221F4B70190E031
S1130DA0C7D1E8CF512C312C20E02032A0F48B3273
S1130DB069F030F4803259F0833269F420612CC038
S1130DC08D3239F0803339F4216026C022602460EA
S1130DD023C0286021C027FD27C030ED380F3A30EA
S1130DE078F426FF06C0FAE05F9E300D1124532EDE
S1130DF013C08AE0389E300D1124332E20620CC0BB
S1130E008E3221F426FD5FC1206406C08C3611F4B5
S1130E10206802C0883641F4F60193FD859193FF62
S1130E2081916F018111C1CF982F9F7D955493308B
S1130E3028F40C5F1F4FFFE3F9830DC0833631F0B4
S1130E40833771F0833509F057C021C0F8018081E0
S1130E5089830E5F1F4F44244394512C540114C0C2
S1130E603801F2E06F0E711CF801A080B18026FFFA
S1130E7003C0652D70E002C06FEF7FEFC5012C87C2
S1130E804CD12C0183012C852F77222E16C03801DA
S1130E90F2E06F0E711CF801A080B18026FF03C040
S1130EA0652D70E002C06FEF7FEFC5012C872AD15A
S1130EB02C012C852068222E830123FC19C0832D4C
S1130EC090E048165906A0F4B70180E290E030D1D2
S1130ED03A94F5CFF50127FC859127FE81915F01B6
S1130EE0B70190E025D131103A94F1E04F1A51083E
S1130EF04114510479F7DEC0843611F0893631F596
S1130F00F80127FF07C060817181828193810C5FA2
S1130F101F4F08C060817181882777FD8095982FC5
S1130F200E5F1F4F2F76B22E97FF09C090958095C4
S1130F30709561957F4F8F4F9F4F2068B22E2AE0A6
S1130F4030E0A40127D1A82EA81843C0853729F47E
S1130F502F7EB22E2AE030E025C0F22FF97FBF2E7B
S1130F608F36C1F018F4883579F0ADC0803719F0A8
S1130F70883721F0A8C02F2F2061B22EB4FE0DC0F7
S1130F808B2D8460B82E09C024FF0AC09F2F966061
S1130F90B92E06C028E030E005C020E130E002C0F0
S1130FA020E132E0F801B7FE07C0608171818281DF
S1130FB093810C5F1F4F06C06081718180E090E0D7
S1130FC00E5F1F4FA401E6D0A82EA818FB2DFF77B3
S1130FD0BF2EB6FE0BC02B2D2E7FA51450F4B4FEED
S1130FE00AC0B2FC08C02B2D2E7E05C07A2C2B2DF6
S1130FF003C07A2C01C0752C24FF0DC0FE01EA0D3C
S1131000F11D8081803311F4297E09C022FF06C0BE
S11310107394739404C0822F867809F0739423FD2B
S113102012C020FF06C05A2C731418F4530C57181E
S1131030732C731460F4B70180E290E02C8778D0AD
S113104073942C85F6CF731410F4371801C0312C27
S113105024FF11C0B70180E390E02C8769D02C8570
S113106022FF16C021FF03C088E590E002C088E794
S113107090E0B7010CC0822F867851F021FD02C0A8
S113108080E201C08BE227FD8DE2B70190E050D0F1
S1131090A51430F4B70180E390E04AD05A94F8CF15
S11310A0AA94F401EA0DF11D8081B70190E040D0CB
S11310B0A110F6CF332009F45DCEB70180E290E0B1
S11310C037D03A94F7CFF7018681978102C08FEF2A
S11310D09FEF2C960FB6F894DEBF0FBECDBFDF9105
S11310E0CF911F910F91FF90EF90DF90CF90BF9021
S11310F0AF909F908F907F906F905F904F903F90B4
S11311002F900895FC010590615070400110D8F7AC
S1131110809590958E0F9F1F0895FC01615070403B
S113112001900110D8F7809590958E0F9F1F089518
S11311300F931F93CF93DF93182F092FEB018B810C
S113114081FD03C08FEF9FEF20C082FF10C04E814E
S11311505F812C813D81421753077CF4E881F9813A
S11311609F012F5F3F4F39832883108306C0E88592
S1131170F985812F1995892B29F72E813F812F5FBE
S11311803F4F3F832E83812F902FDF91CF911F916B
S11311900F910895FA01AA27283051F1203181F1E5
S11311A0E8946F936E7F6E5F7F4F8F4F9F4FAF4F6B
S11311B0B1E03ED0B4E03CD0670F781F891F9A1F7E
S11311C0A11D680F791F8A1F911DA11D6A0F711D32
S11311D0811D911DA11D20D009F468943F912AE03E
S11311E0269F11243019305D3193DEF6CF01089526
S11311F0462F4770405D4193B3E00FD0C9F7F6CF57
S1131200462F4F70405D4A3318F0495D31FD40521E
S1131210419302D0A9F7EACFB4E0A69597958795B4
S113122077956795BA95C9F7009761057105089593
S11312309B01AC010A2E069457954795379527953F
S1131240BA95C9F7620F731F841F951FA01D0895D7
S1071250F894FFCF3C
S10F12540654253033643B0025753B0034
S9030000FC
