S010000070726F6A656374322E73726563EB
S113000071C000008FC000008DC000008BC00000D4
S113001089C0000087C0000085C0000083C00000C4
S113002081C000007FC000007DC000007BC00000D4
S113003079C0000077C0000075C0000073C00000E4
S113004071C0000053C100006DC000006BC000000F
S113005069C0000067C0000065C0000063C0000004
S113006061C000009AC600005DC000005BC00000D3
S113007059C0000057C0000055C0000053C0000024
S113008051C000004FC000004DC000004BC0000034
S113009049C0000047C0000045C0000043C0000044
S11300A041C000003FC000003DC000003BC0000054
S11300B039C0000037C0000035C0000033C0000064
S11300C031C000002FC000002DC000002BC0000074
S11300D029C0000027C0000025C0000023C0000084
S11300E021C0000011241FBECFEFD1E2DEBFCDBF7F
S11300F000E00CBF12E0A0E0B2E0E8EEF3E100E0C3
S11301000BBF02C007900D92AC30B107D9F72FE0B6
S1130110ACE0B2E001C01D92A932B207E1F73DD5CF
S11301200C94F2096DCFFFCFFF93FCB7FF93FFB799
S1130130F894FF93EF93DF93CF93BF93AF939F9381
S11301408F937F936F935F934F933F932F931F935B
S11301500F93FF92EF92DF92CF92BF92AF929F9252
S11301608F927F926F925F924F923F922F921F9243
S11301700F928DB79EB79093990C8093980CE09151
S11301809A0CF0919B0CF395808191819EBF8DBF59
S11301900F901F902F903F904F905F906F907F90A3
S11301A08F909F90AF90BF90CF90DF90EF90FF9093
S11301B00F911F912F913F914F915F916F917F917B
S11301C08F919F91AF91BF91CF91DF91EF91FF916B
S11301D0FFBFFF91FCBFFF910895FF93FCB7FF930E
S11301E0FFB7F894FF93EF93DF93CF93BF93AF934D
S11301F09F938F937F936F935F934F933F932F932B
S11302001F930F93FF92EF92DF92CF92BF92AF9220
S11302109F928F927F926F925F924F923F922F9212
S11302201F920F92E0919A0CF0919B0C8DB79EB7A0
S1130230F395918380838091980C9091990C9EBF43
S11302408DBF0F901F902F903F904F905F906F90B5
S11302507F908F909F90AF90BF90CF90DF90EF9062
S1130260FF900F911F912F913F914F915F916F914B
S11302707F918F919F91AF91BF91CF91DF91EF913A
S1130280FF91FFBFFF91FCBFFF910895FC01DB01CB
S1130290A05FBE4F1D921C9280819181892B19F41D
S11302A07183608306C0A281B381A05FBE4F6D934A
S11302B07C93738362830895CF93CFB7F89483E0DC
S11302C08093E3028ADFCFBFCF910895DC018D9143
S11302D09C911197009749F0FC01E05FFE4F20814B
S11302E031812D933C93118210820895FF93FCB7C2
S11302F0FF93FFB7F894F068FF93EF93DF93CF93E6
S1130300BF93AF939F938F937F936F935F934F9319
S11303103F932F931F930F93FF92EF92DF92CF920D
S1130320BF92AF929F928F927F926F925F924F9201
S11303303F922F921F920F92E0919A0CF0919B0C96
S11303408DB79EB7F395918380838091980C90919B
S1130350990C9EBF8DBF81E08093E302E8E8F0E052
S113036080819181805F984D918380838091980CE6
S11303709091990C9EBF8DBF0F901F902F903F902E
S11303804F905F906F907F908F909F90AF90BF90B1
S1130390CF90DF90EF90FF900F911F912F913F919D
S11303A04F915F916F917F918F919F91AF91BF9189
S11303B0CF91DF91EF91FF91FFBFFF91FCBFFF91C0
S11303C00895F89480E680930101809100028630BC
S11303D028F4809100028F5F30E404C08091000211
S11303E0855030E240E64093020194E62FE758E35B
S11303F061E0215050406040E1F700C0000091509E
S1130400A9F71092020198E27FE728E351E07150C6
S113041020405040E1F700C000009150A9F7981720
S1130420F1F0309302012AE06FE778E351E0615084
S113043070405040E1F700C000002150A9F710922D
S113044002012AE06FE778E351E0615070405040C8
S1130450E1F700C000002150A9F79F5FE0CF94E1CD
S11304606FE778E321E0615070402040E1F700C07D
S113047000009150A9F7B7CF8091CE029091CF029E
S1130480892B09F4B5C08091D8028230F9F48091A7
S1130490DF029091E002892B09F4B0C08091DD0263
S11304A09091DE02892B09F4A9C08091E102909118
S11304B0E2022091DF023091E0028091DD0290910E
S11304C0DE028217930710F483E099C08091D8026A
S11304D0882329F08EEC92E0F9DEBC0102C064E8C6
S11304E07BE0FB01E752FF4F108280E87E96808319
S11304F0339610828091D4029091D50231969083E4
S11305008091D4029091D5023196808331961082E5
S11305108CE591E031969083319680833196CB01BE
S113052089529F4F9183808382E03C96808380919F
S1130530D6029091D7023196918380838091D8021C
S1130540329680838091DD029091DE023997918307
S113055080838091DF029091E002329691838083C0
S11305608091E1029091E20232969183808380919E
S1130570D9029091DA023697918380838091DB02CD
S11305809091DC023297918380838091D8028230EB
S113059051F0833029F0813071F58AEC92E026C065
S11305A082EC92E023C0FB01E05FFE4F11821082D7
S11305B08091C6029091C7023296892B39F4118238
S11305C010827093C7026093C6020BC08091C80268
S11305D09091C902DC01A05FBE4F6D937C9391831F
S11305E080837093C9026093C80205C04FDE03C0C4
S11305F080E090E0089581E090E0089584E08093A5
S11306000002DFDECF93DF931F92CDB7DEB7809178
S11306108100826080938100E0EFF3E0ACE0B2E01F
S113062010821D921D92CF01089695838483EC5EFF
S1130630FE4F2BE0EC37F20799F71092810B1092E2
S1130640800B04EE12E01093CF020093CE0280E7F9
S11306509AE09093D1028093D00283E990E0909342
S1130660D5028093D4021092D80206DF87EF95E07A
S11306709093D5028093D40283E08093D802FCDE69
S113068010939B0C00939A0C81E08093F00382EC0E
S113069092E01CDE80916F00826080936F0080E1A5
S11306A097E29093890080938800109285001092BD
S11306B0840082E086BBEE24E39404E81BE082E03D
S11306C0F82E80919A0C90919B0CFC01E45FFE4FF4
S11306D02081213021F484589B4009F058C0809136
S11306E0C2029091C302892B19F082EC92E03EC0C1
S11306F08091C6029091C702009781F120E030E01A
S113070040E050E0FC01EC5FFE4F60817181161601
S1130710170684F0DC01AA5FBE4F2D913C91318312
S113072020833496208131813697318320834F5F33
S11307305F4F9C014230510514F08BE066C0FC0110
S1130740E05FFE4F808191810097E1F6211531052C
S113075029F030939B0C20939A0C12C08091CA020A
S11307609091CB02892B41F08AEC92E0AFDD90931B
S11307709B0C80939A0C04C010939B0C00939A0CCE
S1130780E0919A0CF0919B0CE45FFE4FE082CCDC8C
S11307902091E302223009F45BC0C0909A0CD090FF
S11307A09B0C233030F4222309F4ECC0213051F0A7
S11307B0E1C0243009F4C9C008F46AC0253009F442
S11307C0E1C0D8C0809184009091850090931F026D
S11307D080931E02809120028F5F80932002F60195
S11307E0E15FFE4F4081423099F43397808181303C
S11307F079F43A9780819181019791838083369629
S113080080819181892B21F488E080930002D9DDD5
S11308108091C6029091C702009769F0FC01EC5FD9
S1130820FE4F2081318121503109318320833C9650
S113083080819181F1CF413009F0A4C0F601E45FD9
S1130840FE4F8081813009F09DC0F082B601A7C0BF
S1130850298312DE9093D3028093D2028091D20234
S11308609091D3022981892B89F060919A0C70911F
S11308709B0CFB01E15FFE4F8081833009F482C051
S11308809091D802933009F080C076C087E0BDCF44
S1130890F4E8CF16FBE0DF0609F474C0F601E45F68
S11308A0FE4F108233968081823009F04AC0209135
S11308B0C6023091C7022C153D0569F4319680813A
S11308C09181009741F09093C7028093C602FC0186
S11308D0EE5EFE4F15C08091C8029091C902F601E8
S11308E0EE5EFE4F8C159D05D1F4808191810097B9
S11308F051F09093C9028093C802FC01E05FFE4F5F
S1130900118210821EC02C153D0549F41092C902B3
S11309101092C8021092C7021092C60212C08081BF
S11309209181FC01E05FFE4FA081B181A05FBE4FC9
S11309302D913C9131832083F901EE5EFE4F91832A
S11309408083B6018EEC92E02CC0F601E15FFE4F8D
S11309508081813031F0833041F4B60182EC92E041
S113096003C0B6018AEC92E091DCF601E45FFE4F2D
S1130970F08208C08FEF49CFFB01E45FFE4F208374
S1130980813069F01092E3029CCE8130D9F78091D6
S1130990D8028230B9F7FB01E45FFE4F80838AEC12
S11309A092E074DCEFCF9FB7F894809121028A30F3
S11309B0A8F420E1829FF0011124EE5DFD4F17861B
S11309C016868F5F809321029FBF8091210220E1D0
S11309D0829FC00111248E5E9D4F08958EE0809306
S11309E00002EFDCCF93CFB7F89420919A0C3091AA
S11309F09B0CF901E15FFE4F4081423011F48DE020
S1130A001FC0FC014685578543305105C4F4FA01E3
S1130A10EE0FFF1FE80FF91F31832083778366836E
S1130A204F5F5F4FFC0157874687F901E45FFE4F34
S1130A3083E08083CFBFD1DBCFBFCF9108958CE01B
S1130A4080930002BEDCAF92BF92CF92DF92EF920E
S1130A50FF920F931F93CF93DF93EC016B01AFB61B
S1130A60F8947D876C877C0100E010E0B2E0BB2E37
S1130A708E859F8508171907C4F5D7011696ED9141
S1130A80FC911797D182C082F701619171917F0126
S1130A90FB01E45FFE4FB082339680818330B9F46A
S1130AA082EC92E0F3DB60919A0C70919B0CFB0159
S1130AB0E15FFE4F8081813019F43397B0820FC01B
S1130AC0823081F4FB01E45FFE4F80830BC08230EF
S1130AD021F48AE08093000274DC813019F48AECFA
S1130AE092E0D4DB0F5F1F4FC3CF1F861E8675DBDA
S1130AF0AFBEDF91CF911F910F91FF90EF90DF90E8
S1130B00CF90BF90AF900895CF93CFB7F8949093C0
S1130B10D5028093D4027093D7026093D60283E007
S1130B208093D80282E08093E30257DB8091D20263
S1130B309091D302CFBFCF9108950F931F93CF937A
S1130B40CFB7F8949093D5028093D4027093D702D0
S1130B506093D60282E08093D8025093DE024093E1
S1130B60DD023093E0022093DF021093E20200934F
S1130B70E1021093DA020093D9023093DC0220934D
S1130B80DB028093E30229DB8091D2029091D302AD
S1130B90CFBFCF911F910F91089534DDCF93DF9391
S1130BA01F921F92CDB7DEB781E090E09A838983CC
S1130BB0ABD0BE016F5F7F4F80919C0C90919D0CD8
S1130BC011DF89819A81A0D00F900F90DF91CF918E
S1130BD0089582E090E098D065E070E080919C0CEC
S1130BE090919D0C30DF82E090E08ED034C00F9362
S1130BF01F93D9DE90939D0C80939C0CBCD08DE008
S1130C009FD080E090E080D060E070E08EEC95E0D2
S1130C107BDF60E070E08EEC95E076DF60E070E012
S1130C208EEC95E071DF60E070E08EEC95E06CDFB7
S1130C3005E010E025E030E044E150E060E070E0E1
S1130C4089EE95E07ADF80E090E05ED081E090E08C
S1130C501F910F910895CF92DF92EF92FF920F931D
S1130C601F93CF93DF938091C10E1F928F9381E0E6
S1130C7092E09F938F938EE99CE09F938F93F0D0A3
S1130C80BC018EE99CE073D0C0ECDCE00F900F90C7
S1130C900F900F900F900F9000E010E088E0E82E86
S1130CA082E0F82E9EE9C92E9CE0D92E8091BE0CDC
S1130CB09091BF0C08171907BCF48881998122967A
S1130CC09F938F93FF92EF92DF92CF92C9D0BC0192
S1130CD08EE99CE04CD00F5F1F4F0F900F900F9048
S1130CE00F900F900F90E2CF81E08093C00E10928E
S1130CF0BF0C1092BE0CDF91CF911F910F91FF900A
S1130D00EF90DF90CF9008952091BE0C3091BF0CEE
S1130D102F3F310509F098F4E091BE0CF091BF0C1F
S1130D20EE0FFF1FE054F34F918380838091BE0C3C
S1130D309091BF0C01969093BF0C8093BE0C0895C4
S1130D408093C10E0895F8949091C00095FFFCCF54
S1130D508093C60078940895CF93DF93EC01899132
S1130D60882311F0F0DFFBCFDF91CF910895F4DFFA
S1130D7080E090E008951092280F1092270F1092AF
S1130D80C20E1092C50087E68093C40088E9809360
S1130D90C1008EE08093C20008951F920F920FB697
S1130DA00F9211240BB60F925F936F937F938F93DF
S1130DB09F93AF93BF93EF93FF938091C00087FFFE
S1130DC0FCCFE091270FF091280F8091C600ED53DE
S1130DD0F14F80838091270F9091280F019664E64C
S1130DE070E02BD09093280F8093270F81E080939D
S1130DF0C20EFF91EF91BF91AF919F918F917F911F
S1130E006F915F910F900BBE0F900FBE0F901F90CC
S1130E101895AA1BBB1B51E107C0AA1FBB1FA6172D
S1130E20B70710F0A61BB70B881F991F5A95A9F78F
S1130E3080959095BC01CD01089597FB072E16F47B
S1130E40009406D077FD08D0E4DF07FC05D03EF41B
S1130E50909581959F4F0895709561957F4F089562
S1130E600F931F93CF93DF93CDB7DEB72E970FB6B3
S1130E70F894DEBF0FBECDBF0E891F8986E08C8338
S1130E801A8309838FEF9FE79E838D83AE01465EAD
S1130E905F4F688D798DCE01019610D0EF81F88572
S1130EA0E00FF11F10822E960FB6F894DEBF0FBE2E
S1130EB0CDBFDF91CF911F910F9108952F923F9253
S1130EC04F925F926F927F928F929F92AF92BF9256
S1130ED0CF92DF92EF92FF920F931F93CF93DF9302
S1130EE0CDB7DEB72C970FB6F894DEBF0FBECDBFDB
S1130EF07C016B018A01FC0117821682838181FFC8
S1130F00B0C1CE0101964C01F7019381F60193FD26
S1130F10859193FF81916F01882309F49EC18532E5
S1130F2039F493FD859193FF81916F01853221F40A
S1130F30B70190E0C7D1E8CF512C312C20E020320A
S1130F40A0F48B3269F030F4803259F0833269F4C2
S1130F5020612CC08D3239F0803339F4216026C0F1
S1130F602260246023C0286021C027FD27C030ED03
S1130F70380F3A3078F426FF06C0FAE05F9E300D51
S1130F801124532E13C08AE0389E300D1124332EC1
S1130F9020620CC08E3221F426FD5FC1206406C09D
S1130FA08C3611F4206802C0883641F4F60193FDB2
S1130FB0859193FF81916F018111C1CF982F9F7DFE
S1130FC09554933028F40C5F1F4FFFE3F9830DC051
S1130FD0833631F0833771F0833509F057C021C06F
S1130FE0F801808189830E5F1F4F44244394512C60
S1130FF0540114C03801F2E06F0E711CF801A08096
S1131000B18026FF03C0652D70E002C06FEF7FEF53
S1131010C5012C874CD12C0183012C852F77222EDE
S113102016C03801F2E06F0E711CF801A080B18087
S113103026FF03C0652D70E002C06FEF7FEFC5018E
S11310402C872AD12C012C852068222E830123FC95
S113105019C0832D90E048165906A0F4B70180E228
S113106090E030D13A94F5CFF50127FC859127FE25
S113107081915F01B70190E025D131103A94F1E0FC
S11310804F1A51084114510479F7DEC0843611F027
S1131090893631F5F80127FF07C0608171818281AB
S11310A093810C5F1F4F08C060817181882777FD91
S11310B08095982F0E5F1F4F2F76B22E97FF09C091
S11310C090958095709561957F4F8F4F9F4F2068C5
S11310D0B22E2AE030E0A40127D1A82EA81843C0DC
S11310E0853729F42F7EB22E2AE030E025C0F22F76
S11310F0F97FBF2E8F36C1F018F4883579F0ADC072
S1131100803719F0883721F0A8C02F2F2061B22E24
S1131110B4FE0DC08B2D8460B82E09C024FF0AC014
S11311209F2F9660B92E06C028E030E005C020E16C
S113113030E002C020E132E0F801B7FE07C0608170
S11311407181828193810C5F1F4F06C06081718120
S113115080E090E00E5F1F4FA401E6D0A82EA818EF
S1131160FB2DFF77BF2EB6FE0BC02B2D2E7FA514B3
S113117050F4B4FE0AC0B2FC08C02B2D2E7E05C06C
S11311807A2C2B2D03C07A2C01C0752C24FF0DC0A2
S1131190FE01EA0DF11D8081803311F4297E09C01E
S11311A022FF06C07394739404C0822F867809F0DA
S11311B0739423FD12C020FF06C05A2C731418F434
S11311C0530C5718732C731460F4B70180E290E049
S11311D02C8778D073942C85F6CF731410F43718B9
S11311E001C0312C24FF11C0B70180E390E02C87AB
S11311F069D02C8522FF16C021FF03C088E590E04A
S113120002C088E790E0B7010CC0822F867851F0C5
S113121021FD02C080E201C08BE227FD8DE2B7010F
S113122090E050D0A51430F4B70180E390E04AD0A8
S11312305A94F8CFAA94F401EA0DF11D8081B70104
S113124090E040D0A110F6CF332009F45DCEB70171
S113125080E290E037D03A94F7CFF7018681978106
S113126002C08FEF9FEF2C960FB6F894DEBF0FBE2F
S1131270CDBFDF91CF911F910F91FF90EF90DF9041
S1131280CF90BF90AF909F908F907F906F905F9022
S11312904F903F902F900895FC010590615070404D
S11312A00110D8F7809590958E0F9F1F0895FC012B
S11312B06150704001900110D8F7809590958E0F81
S11312C09F1F08950F931F93CF93DF93182F092F18
S11312D0EB018B8181FD03C08FEF9FEF20C082FF64
S11312E010C04E815F812C813D81421753077CF4ED
S11312F0E881F9819F012F5F3F4F39832883108351
S113130006C0E885F985812F1995892B29F72E8147
S11313103F812F5F3F4F3F832E83812F902FDF919B
S1131320CF911F910F910895FA01AA27283051F106
S1131330203181F1E8946F936E7F6E5F7F4F8F4F02
S11313409F4FAF4FB1E03ED0B4E03CD0670F781F61
S1131350891F9A1FA11D680F791F8A1F911DA11D46
S11313606A0F711D811D911DA11D20D009F468947F
S11313703F912AE0269F11243019305D3193DEF627
S1131380CF010895462F4770405D4193B3E00FD0DD
S1131390C9F7F6CF462F4F70405D4A3318F0495DC8
S11313A031FD4052419302D0A9F7EACFB4E0A695AB
S11313B09795879577956795BA95C9F700976105CD
S11313C0710508959B01AC010A2E06945795479523
S11313D037952795BA95C9F7620F731F841F951F18
S10B13E0A01D0895F894FFCF4D
S10F13E80654253033643B0025753B009F
S9030000FC
