:1000000071C000008EC000008CC000008AC00000DB
:1000100088C00000DEC60000BEC0000082C0000034
:1000200080C000007EC000007CC000007AC00000DC
:1000300078C0000076C0000074C0000072C00000EC
:1000400070C000004BC200006CC000006AC000001D
:1000500068C0000066C0000064C00000F5C7000072
:1000600060C000005EC000005CC000005AC000001C
:1000700058C0000056C0000054C0000052C000002C
:10008000B3C000004EC000004CC000004AC00000D9
:10009000B5C7000046C0000044C0000042C00000D8
:1000A00040C000003EC000003CC000003AC000005C
:1000B00038C0000036C0000034C0000032C000006C
:1000C00030C000002EC000002CC000002AC000007C
:1000D00028C0000026C0000024C0000022C000008C
:1000E00020C0000011241FBECFEFD1E2DEBFCDBF84
:1000F00000E00CBF12E0A0E0B2E0ECEDF0E100E0C7
:100100000BBF02C007900D92A031B107D9F72CE0C8
:10011000A0E1B2E001C01D92AF32B207E1F77CD599
:10012000DBC76ECFEAE0F1E0808188628083A0E2E5
:10013000B1E01C92E1E2F1E010828C9183608C933B
:100140008081886180838C91877F8C93808181609E
:10015000808385EA91E0909329018093280182EDC4
:1001600090E090932D0180932C0110929000E1E992
:10017000F0E01082808181608083E1E7F0E080819F
:100180008D7F80836D98EAE6F0E080818C608083CB
:10019000ED9AE59A08951F920F920FB60F921124CF
:1001A0008F939F9380911402811117C081E08093F7
:1001B00014021092120210921102C19A80919400BE
:1001C000909195008052914D909399008093980062
:1001D000809171008260809371009F918F910F9048
:1001E0000FBE0F901F9018951F920F920FB60F928F
:1001F00011240BB60F922F933F934F935F936F93FE
:100200007F938F939F93AF93BF93EF93FF938091CF
:100210001402882391F165990EC030911202209149
:10022000110281E090E0032E01C0880F0A94EAF7E2
:10023000822B80931102809112028F5F80931202B1
:100240008091980090919900805C904E90939900D5
:100250008093980080911202883088F010921402E6
:10026000809171008D7F80937100C19AE59A809191
:10027000110280931002D6D402C080911302FF9124
:10028000EF91BF91AF919F918F917F916F915F910E
:100290004F913F912F910F900BBE0F900FBE0F907B
:1002A0001F901895E0E2F1E0808188608083429A97
:1002B0008FEC97E00197F1F700C000000895E0E2AD
:1002C000F1E08081877F808342988FEC97E00197EF
:1002D000F1F700C0000008950F931F93CF93DF93B1
:1002E000082FE0DFECDFC0E0D0E010E0C8010C2E0A
:1002F00002C0959587950A94E2F780FF02C0D2DF8D
:1003000001C0DDDF2196C830D10581F7DF91CF91A3
:100310001F910F91D4CFFFCFFF93FCB7FF93FFB78F
:10032000F894FF93EF93DF93CF93BF93AF939F9393
:100330008F937F936F935F934F933F932F931F936D
:100340000F93FF92EF92DF92CF92BF92AF929F9264
:100350008F927F926F925F924F923F922F921F9255
:100360000F928DB79EB79093010C8093000CE09193
:10037000020CF091030CF395808191819EBF8DBF9B
:100380000F901F902F903F904F905F906F907F90B5
:100390008F909F90AF90BF90CF90DF90EF90FF90A5
:1003A0000F911F912F913F914F915F916F917F918D
:1003B0008F919F91AF91BF91CF91DF91EF91FF917D
:1003C000FFBFFF91FCBFFF910895FF93FCB7FF9320
:1003D000FFB7F894FF93EF93DF93CF93BF93AF935F
:1003E0009F938F937F936F935F934F933F932F933D
:1003F0001F930F93FF92EF92DF92CF92BF92AF9233
:100400009F928F927F926F925F924F923F922F9224
:100410001F920F92E091020CF091030C8DB79EB7E2
:10042000F395918380838091000C9091010C9EBF85
:100430008DBF0F901F902F903F904F905F906F90C7
:100440007F908F909F90AF90BF90CF90DF90EF9074
:10045000FF900F911F912F913F914F915F916F915D
:100460007F918F919F91AF91BF91CF91DF91EF914C
:10047000FF91FFBFFF91FCBFFF910895FC01DB01DD
:10048000A05FBE4F1D921C9280819181892B19F42F
:100490007183608306C0A281B381A05FBE4F6D935C
:1004A0007C93738362830895CF93CFB7F89483E0EE
:1004B00080934B028ADFCFBFCF910895DC018D91ED
:1004C0009C911197009749F0FC01E05FFE4F20815D
:1004D00031812D933C93118210820895FF93FCB7D4
:1004E000FF93FFB7F894F068FF93EF93DF93CF93F8
:1004F000BF93AF939F938F937F936F935F934F932C
:100500003F932F931F930F93FF92EF92DF92CF921F
:10051000BF92AF929F928F927F926F925F924F9213
:100520003F922F921F920F92E091020CF091030CD8
:100530008DB79EB7F395918380838091000C909145
:10054000010C9EBF8DBF81E080934B02E8E8F0E094
:1005500080819181805F984D918380838091000C90
:100560009091010C9EBF8DBF0F901F902F903F90D8
:100570004F905F906F907F908F909F90AF90BF90C3
:10058000CF90DF90EF90FF900F911F912F913F91AF
:100590004F915F916F917F918F919F91AF91BF919B
:1005A000CF91DF91EF91FF91FFBFFF91FCBFFF91D2
:1005B0000895F89480E680930101809100028630CE
:1005C00028F4809100028F5F30E404C08091000223
:1005D000855030E240E64093020194E62FE758E36D
:1005E00061E0215050406040E1F700C000009150B0
:1005F000A9F71092020198E27FE728E351E07150D9
:1006000020405040E1F700C000009150A9F7981732
:10061000F1F0309302012AE06FE778E351E0615096
:1006200070405040E1F700C000002150A9F710923F
:1006300002012AE06FE778E351E0615070405040DA
:10064000E1F700C000002150A9F79F5FE0CF94E1DF
:100650006FE778E321E0615070402040E1F700C08F
:1006600000009150A9F7B7CF8091360290913702E0
:10067000892B09F4B5C0809140028230F9F4809151
:10068000470290914802892B09F4B0C0809145023D
:1006900090914602892B09F4A9C08091490290915A
:1006A0004A02209147023091480280914502909180
:1006B00046028217930710F483E099C080914002AC
:1006C000882329F086E392E0F9DEBC0102C06CEEDB
:1006D0007AE0FB01E752FF4F108280E87E9680832C
:1006E0003396108280913C0290913D023196908326
:1006F00080913C0290913D02319680833196108228
:1007000084E592E031969083319680833196CB01D7
:1007100089529F4F9183808382E03C9680838091B1
:100720003E0290913F0231969183808380914002F6
:100730003296808380914502909146023997918349
:100740008083809147029091480232969183808302
:100750008091490290914A023296918380838091E0
:1007600041029091420238979183808380914302A5
:10077000909144023296918380838091400282302E
:1007800051F0833029F0813071F582E392E026C088
:100790008AE292E023C0FB01E05FFE4F11821082EB
:1007A00080912E0290912F023296892B39F411827A
:1007B000108270932F0260932E020BC08091300242
:1007C00090913102DC01A05FBE4F6D937C939183C9
:1007D0008083709331026093300205C04FDE03C006
:1007E00080E090E0089581E090E0089584E08093B7
:1007F0000002DFDECF93DF931F92CDB7DEB780918B
:100800008100826080938100E8E5F3E0A5E1B2E039
:1008100010821D921D92CF01089695838483EC5E11
:10082000FE4F2AE0E43EF20799F71092E90A10928F
:10083000E80A0CE412E0109337020093360288EDC8
:1008400099E090933902809338028BE891E090937D
:100850003D0280933C021092400206DF85E196E063
:1008600090933D0280933C0283E080934002FCDE43
:100870001093030C0093020C81E0809358038AE2EA
:1008800092E01CDE80916F00826080936F0080E1B7
:1008900097E29093890080938800109285001092CF
:1008A000840082E086BBEE24E3940CEE1AE082E042
:1008B000F82E8091020C9091030CFC01E45FFE4F36
:1008C0002081213021F48C5E9A4009F057C080913C
:1008D0002A0290912B02892B19F08AE292E03DC006
:1008E00080912E0290912F02009779F120E030E064
:1008F00040E050E0FC01EE5FFE4F60817181672BAC
:1009000081F4DC01AA5FBE4F2D913C91318320839D
:100910003696208131813497318320834F5F5F4F3A
:100920009C014230510514F08BE066C0FC01E05F91
:10093000FE4F808191810097E9F62115310529F05C
:100940003093030C2093020C12C0809132029091DC
:100950003302892B41F082E392E0B0DD9093030CE7
:100960008093020C04C01093030C0093020CE091DE
:10097000020CF091030CE45FFE4FE082CDDC20918D
:100980004B02223009F45BC0C090020CD090030CE3
:10099000233030F4222309F4ECC0213051F0E1C0BF
:1009A000243009F4C9C008F46AC0253009F4E1C054
:1009B000D8C0809184009091850090932802809304
:1009C0002702809129028F5F80932902F601E15F5F
:1009D000FE4F4081423099F433978081813079F421
:1009E00038978081918101979183808334968081AB
:1009F0009181892B21F488E080930002DADD8091D7
:100A00002E0290912F02009769F0FC01EE5FFE4FDD
:100A10002081318121503109318320833E968081AC
:100A20009181F1CF413009F0A4C0F601E45FFE4F9F
:100A30008081813009F09DC0F082B601A7C0298372
:100A400013DE90933B0280933A0280913A02909198
:100A50003B022981892B89F06091020C7091030C73
:100A6000FB01E15FFE4F8081833009F482C09091E9
:100A70004002933009F080C076C087E0BDCFFCEE25
:100A8000CF16FAE0DF0609F474C0F601E45FFE4F0A
:100A9000108233968081823009F04AC020912E0264
:100AA00030912F022C153D0569F43196808191819A
:100AB000009741F090932F0280932E02FC01EE5E8E
:100AC000FE4F15C08091300290913102F601EE5E2A
:100AD000FE4F8C159D05D1F480819181009751F0D6
:100AE0009093310280933002FC01E05FFE4F11824F
:100AF00010821EC02C153D0549F41092310210924F
:100B0000300210922F0210922E0212C08081918129
:100B1000FC01E05FFE4FA081B181A05FBE4F2D912F
:100B20003C9131832083F901EE5EFE4F91838083F7
:100B3000B60186E392E02CC0F601E15FFE4F8081B2
:100B4000813031F0833041F4B6018AE292E003C093
:100B5000B60182E392E092DCF601E45FFE4FF082A0
:100B600008C08FEF49CFFB01E45FFE4F2083813047
:100B700069F010924B029DCE8130D9F780914002EE
:100B80008230B9F7FB01E45FFE4F808382E392E09D
:100B900075DCEFCF0F931F93CF93CFB7F89490935B
:100BA0003D0280933C0270933F0260933E0282E0DC
:100BB000809340025093460240934502309348028E
:100BC0002093470210934A02009349021093420275
:100BD00000934102309344022093430280934B02DE
:100BE000F4DB80913A0290913B02CFBFCF911F91ED
:100BF0000F910895CF93DF931F92CDB7DEB78FB7D4
:100C00008983F89484E080934B02DFDB89818FBF76
:100C10000F90DF91CF910895EDDD82E45DDBEADF97
:100C2000FCCF0895089581D17DCA0F931F93FBDFF8
:100C300005E010E024E030E04AE050E060E070E0E1
:100C40008DE096E0A7DF81E090E01F910F9108957D
:100C5000CF93DF93C2E0D1E088818F7B88838FEFD1
:100C60005ED1988190649883DF91CF910895CF925F
:100C7000DF92FF920F931F93CF93DF931F92CDB715
:100C8000DEB78B0192E0C92EDD24D394F60190816A
:100C90009F7B90838F718062498341D1F82E498177
:100CA000642FC8012FD1F6019081906490838F2D1D
:100CB0000F90DF91CF911F910F91FF90DF90CF9018
:100CC0000895EF92FF920F931F93CF93DF931F929C
:100CD000CDB7DEB77B018A01909102019F7B909393
:100CE000020129831CD12981222359F00115110504
:100CF00021F4622FC70106D104C0422FB801C701F9
:100D0000F0D0809102018064809302010F90DF9106
:100D1000CF911F910F91FF90EF900895809109025C
:100D2000882329F045E064E072E08AE0A0CF0895CE
:100D3000EF92FF921F93CF93DF931F921F92CDB735
:100D4000DEB79FEFFB01908322E0E22EFF24F394B5
:100D5000F70190819F7B90838F7169837A83DFD0C5
:100D6000182F41E069817A8180E090E0BAD0F701E4
:100D7000908190649083812F0F900F90DF91CF919D
:100D80001F91FF90EF900895CF93DF931F92CDB7FF
:100D9000DEB7BE016F5F7F4F80E0CADF898180FDD3
:100DA00014C08160898341E0BE016F5F7F4F80E0A6
:100DB0005EDF83E091E00197F1F700C0000083E07F
:100DC00091E00197F1F700C000000F90DF91CF9103
:100DD00008951F920F920FB60F9211240BB60F9227
:100DE0002F933F934F935F936F937F938F939F9333
:100DF000AF93BF93EF93FF93CF93DF931F92CDB742
:100E0000DEB7809102018F7E809302018091020102
:100E10008F7D809302011CDF898386FF03C08E7063
:100E20008695FFDE898185FF1BC01092040C76DF5A
:100E3000ABDF8091020290910302880F991F90937B
:100E4000030280930202809102029091030281606A
:100E5000909303028093020281E08093010219C003
:100E600084FF17C020E040E050E060E070E081EED9
:100E700028DF1092040C52DF87DF809102029091EC
:100E80000302880F991F909303028093020210922D
:100E9000010280E7898341E0BE016F5F7F4F87E0F9
:100EA000E6DE80910201806180930201809102015F
:100EB0008062809302010F90DF91CF91FF91EF91BB
:100EC000BF91AF919F918F917F916F915F914F9162
:100ED0003F912F910F900BBE0F900FBE0F901F9060
:100EE0001895262FFB013E2F321B341750F4DC01DE
:100EF0003D91CD013EBD0DB407FEFDCF3EB5319312
:100F0000F2CF0895282FFC018E2F821B861730F414
:100F100081918EBD0DB407FEFDCFF6CF08958EBD35
:100F20000DB407FEFDCF8EB50895519A599883E010
:100F300038D080E82FD02FEF89EF90E0215080400B
:100F40009040E1F700C0000081E824D087E022D083
:100F50002FEF81EE94E0215080409040E1F700C0F7
:100F6000000080E01ED080E815D02FEF89EF90E0E0
:100F7000215080409040E1F700C0000083E80AD093
:100F80002FEF89EF90E0215080409040E1F700C0C2
:100F9000000008959091C80095FFFCCF8093CE008B
:100FA00008952FB7F894909165009E7F9093650007
:100FB000813059F038F0823059F0833049F488E0BC
:100FC00090E008C083E390E005C089E190E002C0B2
:100FD00080E190E09093CD008093CC0080E48093FA
:100FE000C80088E08093C90086E08093CA008091A1
:100FF000C8008D7F8093C8002FBF08951F920F9265
:101000000FB60F9211240BB60F928F939F93EF930D
:10101000FF93E091050CF0E08091CE00EA5FF34F82
:1010200080838091050C90E001968F7199278093C1
:10103000050CFF91EF919F918F910F900BBE0F9038
:101040000FBE0F901F9018951F920F920FB60F9220
:1010500011242F933F938F939F93AF93BF938091CE
:101060002A0C90912B0CA0912C0CB0912D0C30914E
:101070002E0C0196A11DB11D232F2D5F2D3720F0C1
:101080002D570196A11DB11D20932E0C80932A0C83
:1010900090932B0CA0932C0CB0932D0C8091260CCC
:1010A0009091270CA091280CB091290C0196A11DBC
:1010B000B11D8093260C9093270CA093280CB0931D
:1010C000290CBF91AF919F918F913F912F910F90DC
:0C10D0000FBE0F901F901895F894FFCFF2
:1010DC000601FF00E7E7E7E7E7202000000000003B
:00000001FF
