:1000000071C000008EC000008CC000008AC00000DB
:1000100088C00000E5C5000084C0000082C0000068
:1000200080C000007EC000007CC000007AC00000DC
:1000300078C0000076C0000074C0000072C00000EC
:1000400070C0000052C100006CC000006AC0000017
:1000500068C0000066C0000064C0000019C700004E
:1000600060C000005EC000005CC000005AC000001C
:1000700058C0000056C0000054C0000052C000002C
:1000800050C000004EC000004CC000004AC000003C
:10009000D9C6000046C0000044C0000042C00000B5
:1000A00040C000003EC000003CC000003AC000005C
:1000B00038C0000036C0000034C0000032C000006C
:1000C00030C000002EC000002CC000002AC000007C
:1000D00028C0000026C0000024C0000022C000008C
:1000E00020C0000011241FBECFEFD1E2DEBFCDBF84
:1000F00000E00CBF12E0A0E0B2E0E4E2FFE000E0CC
:100100000BBF02C007900D92A031B107D9F72CE0C8
:10011000A0E1B2E001C01D92AA32B207E1F783D498
:10012000FFC66ECFFFCFFF93FCB7FF93FFB7F894E6
:10013000FF93EF93DF93CF93BF93AF939F938F93EF
:100140007F936F935F934F933F932F931F930F93DF
:10015000FF92EF92DF92CF92BF92AF929F928F92D7
:100160007F926F925F924F923F922F921F920F92C7
:100170008DB79EB79093FC0B8093FB0BE091FD0B2A
:10018000F091FE0BF395808191819EBF8DBF0F9002
:100190001F902F903F904F905F906F907F908F9027
:1001A0009F90AF90BF90CF90DF90EF90FF900F9116
:1001B0001F912F913F914F915F916F917F918F91FF
:1001C0009F91AF91BF91CF91DF91EF91FF91FFBFD1
:1001D000FF91FCBFFF910895FF93FCB7FF93FFB71A
:1001E000F894FF93EF93DF93CF93BF93AF939F93D5
:1001F0008F937F936F935F934F933F932F931F93AF
:100200000F93FF92EF92DF92CF92BF92AF929F92A5
:100210008F927F926F925F924F923F922F921F9296
:100220000F92E091FD0BF091FE0B8DB79EB7F39509
:10023000918380838091FB0B9091FC0B9EBF8DBFBF
:100240000F901F902F903F904F905F906F907F90F6
:100250008F909F90AF90BF90CF90DF90EF90FF90E6
:100260000F911F912F913F914F915F916F917F91CE
:100270008F919F91AF91BF91CF91DF91EF91FF91BE
:10028000FFBFFF91FCBFFF910895FC01DB01A05F60
:10029000BE4F1D921C9280819181892B19F471832C
:1002A000608306C0A281B381A05FBE4F6D937C9333
:1002B000738362830895CF93CFB7F89483E08093DC
:1002C00046028ADFCFBFCF910895DC018D919C91CA
:1002D0001197009749F0FC01E05FFE4F20813181CA
:1002E0002D933C93118210820895FF93FCB7FF93E6
:1002F000FFB7F894F068FF93EF93DF93CF93BF932A
:10030000AF939F938F937F936F935F934F933F939D
:100310002F931F930F93FF92EF92DF92CF92BF9292
:10032000AF929F928F927F926F925F924F923F9285
:100330002F921F920F92E091FD0BF091FE0B8DB763
:100340009EB7F395918380838091FB0B9091FC0B7A
:100350009EBF8DBF81E080934602E8E8F0E0808197
:100360009181805F984D918380838091FB0B909168
:10037000FC0B9EBF8DBF0F901F902F903F904F9012
:100380005F906F907F908F909F90AF90BF90CF9035
:10039000DF90EF90FF900F911F912F913F914F9120
:1003A0005F916F917F918F919F91AF91BF91CF910D
:1003B000DF91EF91FF91FFBFFF91FCBFFF91089587
:1003C000F89480E68093010180910002863028F441
:1003D000809100028F5F30E404C08091000285505C
:1003E00030E240E64093020194E62FE758E361E0F3
:1003F000215050406040E1F700C000009150A9F743
:100400001092020198E27FE728E351E0715020400A
:100410005040E1F700C000009150A9F79817F1F0A3
:10042000309302012AE06FE778E351E061507040B9
:100430005040E1F700C000002150A9F710920201DE
:100440002AE06FE778E351E0615070405040E1F7F7
:1004500000C000002150A9F79F5FE0CF94E16FE753
:1004600078E321E0615070402040E1F700C00000D7
:100470009150A9F7B7CF8091310290913202892B28
:1004800009F4B5C080913B028230F9F480914202B8
:1004900090914302892B09F4B0C080914002909161
:1004A0004102892B09F4A9C0809144029091450230
:1004B000209142023091430280914002909141028A
:1004C0008217930710F483E099C080913B02882340
:1004D00029F081E392E0F9DEBC0102C067EE7AE028
:1004E000FB01E752FF4F108280E87E9680833396AF
:1004F00010828091370290913802319690838091DA
:1005000037029091380231968083319610828BE5C4
:1005100091E031969083319680833196CB01895258
:100520009F4F9183808382E03C9680838091390243
:1005300090913A0231969183808380913B0232966A
:10054000808380914002909141023997918380830A
:1005500080914202909143023296918380838091F0
:1005600044029091450232969183808380913C02AF
:1005700090913D0238979183808380913E029091C3
:100580003F0232969183808380913B02823051F00A
:10059000833029F0813071F58DE292E026C085E24A
:1005A00092E023C0FB01E05FFE4F11821082809138
:1005B000290290912A023296892B39F411821082F5
:1005C00070932A02609329020BC080912B029091B4
:1005D0002C02DC01A05FBE4F6D937C9391838083DE
:1005E00070932C0260932B0205C04FDE03C080E0A5
:1005F00090E0089581E090E0089584E08093000207
:10060000DFDECF93DF931F92CDB7DEB780918100FD
:10061000826080938100E3E5F3E0A0E1B2E0108224
:100620001D921D92CF01089695838483EC5EFE4F48
:100630002AE0EF3DF20799F71092E40A1092E30ADC
:1006400007E412E0109332020093310283ED99E047
:10065000909334028093330282E990E090933802C1
:100660008093370210923B0206DF8CE195E0909375
:1006700038028093370283E080933B02FCDE1093C4
:10068000FE0B0093FD0B81E08093530385E292E023
:100690001CDE80916F00826080936F0080E197E2A2
:1006A00090938900809388001092850010928400B6
:1006B00082E086BBEE24E39407EE1AE082E0F82E97
:1006C0008091FD0B9091FE0BFC01E45FFE4F2081B9
:1006D000213021F4875E9A4009F057C080912502AD
:1006E00090912602892B19F085E292E03DC080911D
:1006F000290290912A02009779F120E030E040E051
:1007000050E0FC01EE5FFE4F60817181672B81F448
:10071000DC01AA5FBE4F2D913C9131832083369638
:10072000208131813497318320834F5F5F4F9C015B
:100730004230510514F08BE066C0FC01E05FFE4FD3
:10074000808191810097E9F62115310529F03093D8
:10075000FE0B2093FD0B12C080912D0290912E0272
:10076000892B41F08DE292E0B0DD9093FE0B8093F7
:10077000FD0B04C01093FE0B0093FD0BE091FD0BED
:10078000F091FE0BE45FFE4FE082CDDC209146024B
:10079000223009F45BC0C090FD0BD090FE0B2330DB
:1007A00030F4222309F4ECC0213051F0E1C02430B0
:1007B00009F4C9C008F46AC0253009F4E1C0D8C002
:1007C000809184009091850090932302809322026F
:1007D000809124028F5F80932402F601E15FFE4F37
:1007E0004081423099F433978081813079F4389791
:1007F000808191810197918380833496808191815A
:10080000892B21F488E080930002DADD80912902AF
:1008100090912A02009769F0FC01EE5FFE4F208163
:10082000318121503109318320833E96808191812D
:10083000F1CF413009F0A4C0F601E45FFE4F8081A2
:10084000813009F09DC0F082B601A7C0298313DE74
:100850009093360280933502809135029091360252
:100860002981892B89F06091FD0B7091FE0BFB01B2
:10087000E15FFE4F8081833009F482C090913B029A
:10088000933009F080C076C087E0BDCFF7EECF1679
:10089000FAE0DF0609F474C0F601E45FFE4F10824F
:1008A00033968081823009F04AC02091290230912C
:1008B0002A022C153D0569F43196808191810097BB
:1008C00041F090932A0280932902FC01EE5EFE4FD4
:1008D00015C080912B0290912C02F601EE5EFE4F26
:1008E0008C159D05D1F480819181009751F09093F2
:1008F0002C0280932B02FC01E05FFE4F11821082DC
:100900001EC02C153D0549F410922C0210922B02AA
:1009100010922A021092290212C080819181FC015A
:10092000E05FFE4FA081B181A05FBE4F2D913C9151
:1009300031832083F901EE5EFE4F91838083B601FF
:1009400081E392E02CC0F601E15FFE4F80818130AF
:1009500031F0833041F4B60185E292E003C0B60184
:100960008DE292E092DCF601E45FFE4FF08208C077
:100970008FEF49CFFB01E45FFE4F2083813069F0A8
:10098000109246029DCE8130D9F780913B02823091
:10099000B9F7FB01E45FFE4F80838DE292E075DCE6
:1009A000EFCF0F931F93CF93CFB7F8949093380264
:1009B0008093370270933A026093390282E0809309
:1009C0003B025093410240934002309343022093F4
:1009D0004202109345020093440210933D0200939B
:1009E0003C0230933F0220933E0280934602F4DBA8
:1009F0008091350290913602CFBFCF911F910F9118
:100A00000895CF93DF931F92CDB7DEB78FB7898359
:100A1000F89484E080934602DFDB89818FBF0F90DA
:100A2000DF91CF910895EDDD60E070E080EF90E020
:100A3000B8D1E7DFF9CF08950F931F937DD105E07B
:100A400010E024E030E04AE050E060E070E084E153
:100A500095E0A7DF81E090E01F910F910895CF937B
:100A6000DF93C2E0D1E088818F7B88838FEF5ED1F6
:100A7000988190649883DF91CF910895CF92DF920F
:100A8000FF920F931F93CF93DF931F92CDB7DEB7E3
:100A90008B0192E0C92EDD24D394F60190819F7BD7
:100AA00090838F718062498341D1F82E4981642FF0
:100AB000C8012FD1F6019081906490838F2D0F9003
:100AC000DF91CF911F910F91FF90DF90CF9008950C
:100AD000EF92FF920F931F93CF93DF931F92CDB7A7
:100AE000DEB77B018A01909102019F7B9093020106
:100AF00029831CD12981222359F00115110521F4E4
:100B0000622FC70106D104C0422FB801C701F0D03F
:100B1000809102018064809302010F90DF91CF9158
:100B20001F910F91FF90EF90089580910902882303
:100B300029F045E064E072E08AE0A0CF0895EF92EA
:100B4000FF921F93CF93DF931F921F92CDB7DEB713
:100B50009FEFFB01908322E0E22EFF24F394F70144
:100B600090819F7B90838F7169837A83DFD0182F68
:100B700041E069817A8180E090E0BAD0F70190810C
:100B800090649083812F0F900F90DF91CF911F91F0
:100B9000FF90EF900895CF93DF931F92CDB7DEB70C
:100BA000BE016F5F7F4F80E0CADF898180FD14C086
:100BB0008160898341E0BE016F5F7F4F80E05EDF2F
:100BC00083E091E00197F1F700C0000083E091E03D
:100BD0000197F1F700C000000F90DF91CF910895C9
:100BE0001F920F920FB60F9211240BB60F922F93F4
:100BF0003F934F935F936F937F938F939F93AF93A5
:100C0000BF93EF93FF93CF93DF931F92CDB7DEB7E0
:100C1000809102018F7E80930201809102018F7D7D
:100C2000809302011CDF898386FF03C08E70869546
:100C300002DF898185FF1BC01092FF0B76DFABDFDF
:100C40008091020290910302880F991F90930302F2
:100C5000809302028091020290910302816090933E
:100C600003028093020281E08093010219C084FF95
:100C700017C020E040E050E060E070E081EE28DF47
:100C80001092FF0B52DF87DF8091020290910302E6
:100C9000880F991F90930302809302021092010221
:100CA00080E7898341E0BE016F5F7F4F87E0E6DE2A
:100CB0008091020180618093020180910201806233
:100CC000809302010F90DF91CF91FF91EF91BF913F
:100CD000AF919F918F917F916F915F914F913F91D4
:100CE0002F910F900BBE0F900FBE0F901F90189575
:100CF000262FFB013E2F321B341750F4DC013D91AF
:100D0000CD013EBD0DB407FEFDCF3EB53193F2CF10
:100D10000895282FFC018E2F821B861730F48191B5
:100D20008EBD0DB407FEFDCFF6CF08958EBD0DB478
:100D300007FEFDCF8EB50895519A599883E055D09E
:100D400080E84CD02FEF89EF90E021508040904018
:100D5000E1F700C0000081E841D087E03FD02FEFED
:100D600081EE94E0215080409040E1F700C0000007
:100D700080E03BD080E832D02FEF89EF90E0215027
:100D800080409040E1F700C0000083E827D02FEFBB
:100D900089EF90E0215080409040E1F700C00000D2
:100DA00008951F93CF93DF9300D0CDB7DEB7182FF0
:100DB00089E86B837A83998311D09981892F0ED02A
:100DC000812F0CD07A81872F09D06B81862F0F90CD
:100DD0000F900F90DF91CF911F9100C09091C800AC
:100DE00095FFFCCF8093CE0008952FB7F894909193
:100DF00065009E7F90936500813059F038F0823015
:100E000059F0833049F488E090E008C083E390E033
:100E100005C089E190E002C080E190E09093CD00B0
:100E20008093CC0080E48093C80088E08093C90060
:100E300086E08093CA008091C8008D7F8093C800AF
:100E40002FBF08951F920F920FB60F9211240BB669
:100E50000F928F939F93EF93FF93E091000CF0E03C
:100E60008091CE00EF5FF34F80838091000C90E083
:100E700001968F7199278093000CFF91EF919F91BC
:100E80008F910F900BBE0F900FBE0F901F90189573
:100E90001F920F920FB60F9211242F933F938F93AF
:100EA0009F93AF93BF938091250C9091260CA091B6
:100EB000270CB091280C3091290C0196A11DB11D71
:100EC000232F2D5F2D3720F02D570196A11DB11D29
:100ED0002093290C8093250C9093260CA093270C2B
:100EE000B093280C8091210C9091220CA091230C9E
:100EF000B091240C0196A11DB11D8093210C9093FB
:100F0000220CA093230CB093240CBF91AF919F911E
:100F10008F913F912F910F900FBE0F901F901895BA
:040F2000F894FFCF73
:100F24000601FF00E7E7E7E7E720200000000000F4
:00000001FF
