:1000000071C000008FC000008DC000008BC00000D8
:1000100089C000000C94750ABFC0000083C00000B6
:1000200081C000007FC000007DC000007BC00000D8
:1000300079C0000077C0000075C0000073C00000E8
:1000400071C0000016C200006DC000006BC000004F
:1000500069C0000067C0000065C000000C94680C17
:1000600061C000005FC000005DC000005BC0000018
:1000700059C0000057C0000055C0000053C0000028
:10008000B4C000004FC000004DC000004BC00000D5
:100090000C94380C47C0000045C0000043C000006D
:1000A00041C000003FC000003DC000003BC0000058
:1000B00039C0000037C0000035C0000033C0000068
:1000C00031C000002FC000002DC000002BC0000078
:1000D00029C0000027C0000025C0000023C0000088
:1000E00021C0000011241FBECFEFD1E2DEBFCDBF83
:1000F00000E00CBF12E0A0E0B2E0E4E6F9E100E0CD
:100100000BBF02C007900D92A033B107D9F72DE0C5
:10011000A0E3B2E001C01D92A531B207E1F711D60C
:100120000C94B00C6DCFEAE0F1E0808188628083AE
:10013000A0E2B1E01C92E1E2F1E010828C918360D8
:100140008C938081886180838C91877F8C93808160
:100150008160808385EA91E0909329018093280152
:1001600082ED90E090932D0180932C0110929000ED
:10017000E1E9F0E01082808181608083E1E7F0E0D6
:1001800080818D7F80836D98EAE6F0E080818C60CD
:100190008083ED9AE59A08951F920F920FB60F9201
:1001A00011248F939F9380913402811117C081E0B5
:1001B000809334021092320210923102C19A8091DF
:1001C0009400909195008052914D90939900809366
:1001D0009800809171008260809371009F918F914F
:1001E0000F900FBE0F901F9018951F920F920FB691
:1001F0000F9211240BB60F922F933F934F935F935F
:100200006F937F938F939F93AF93BF93EF93FF93DE
:1002100080913402882391F165990EC030913202A9
:100220002091310281E090E0032E01C0880F0A94F2
:10023000EAF7822B80933102809132028F5F8093A4
:1002400032028091980090919900805C904E90933A
:1002500099008093980080913202883088F0109243
:100260003402809171008D7F80937100C19AE59A6C
:10027000809131028093300218D602C080913302FF
:10028000FF91EF91BF91AF919F918F917F916F916E
:100290005F914F913F912F910F900BBE0F900FBE2A
:1002A0000F901F901895809130020895FFCFFF9313
:1002B000FCB7FF93FFB7F894FF93EF93DF93CF93CF
:1002C000BF93AF939F938F937F936F935F934F935E
:1002D0003F932F931F930F93FF92EF92DF92CF9252
:1002E000BF92AF929F928F927F926F925F924F9246
:1002F0003F922F921F920F928DB79EB79093C20C90
:100300008093C10CE091C30CF091C40CF3958081F3
:1003100091819EBF8DBF0F901F902F903F904F9067
:100320005F906F907F908F909F90AF90BF90CF9095
:10033000DF90EF90FF900F911F912F913F914F9180
:100340005F916F917F918F919F91AF91BF91CF916D
:10035000DF91EF91FF91FFBFFF91FCBFFF910895E7
:10036000FF93FCB7FF93FFB7F894FF93EF93DF93EE
:10037000CF93BF93AF939F938F937F936F935F932D
:100380004F933F932F931F930F93FF92EF92DF9220
:10039000CF92BF92AF929F928F927F926F925F9215
:1003A0004F923F922F921F920F92E091C30CF091C7
:1003B000C40C8DB79EB7F395918380838091C10C57
:1003C0009091C20C9EBF8DBF0F901F902F903F90B9
:1003D0004F905F906F907F908F909F90AF90BF9065
:1003E000CF90DF90EF90FF900F911F912F913F9151
:1003F0004F915F916F917F918F919F91AF91BF913D
:10040000CF91DF91EF91FF91FFBFFF91FCBFFF9173
:100410000895FC01DB01A05FBE4F1D921C928081FC
:100420009181892B19F47183608306C0A281B38105
:10043000A05FBE4F6D937C93738362830895CF93C7
:10044000CFB7F89483E080930C038ADFCFBFCF91BE
:100450000895DC018D919C911197009749F0FC0162
:10046000E05FFE4F208131812D933C9311821082F9
:100470000895FF93FCB7FF93FFB7F894F068FF93DC
:10048000EF93DF93CF93BF93AF939F938F937F931C
:100490006F935F934F933F932F931F930F93FF920D
:1004A000EF92DF92CF92BF92AF929F928F927F9204
:1004B0006F925F924F923F922F921F920F92E09114
:1004C000C30CF091C40C8DB79EB7F39591838083D4
:1004D0008091C10C9091C20C9EBF8DBF81E0809332
:1004E0000C03E8E8F0E080819181805F984D918372
:1004F00080838091C10C9091C20C9EBF8DBF0F90E4
:100500001F902F903F904F905F906F907F908F90B3
:100510009F90AF90BF90CF90DF90EF90FF900F91A2
:100520001F912F913F914F915F916F917F918F918B
:100530009F91AF91BF91CF91DF91EF91FF91FFBF5D
:10054000FF91FCBFFF910895F89480E6809301012C
:1005500080910002863028F4809100028F5F30E4A1
:1005600004C080910002855030E240E640930201D1
:1005700094E62FE758E361E0215050406040E1F7F6
:1005800000C000009150A9F71092020198E27FE7A5
:1005900028E351E0715020405040E1F700C00000D6
:1005A0009150A9F79817F1F0309302012AE06FE714
:1005B00078E351E0615070405040E1F700C0000026
:1005C0002150A9F7109202012AE06FE778E351E089
:1005D000615070405040E1F700C000002150A9F781
:1005E0009F5FE0CF94E16FE778E321E061507040D6
:1005F0002040E1F700C000009150A9F7B7CF8091EB
:10060000F7029091F802892B09F4B5C0809101039B
:100610008230F9F48091080390910903892B09F441
:10062000B0C08091060390910703892B09F4A9C0FB
:1006300080910A0390910B032091080330910903E4
:1006400080910603909107038217930710F483E0CB
:1006500099C080910103882329F087EF92E0F9DEA9
:10066000BC0102C06DEA7BE0FB01E752FF4F108244
:1006700080E87E968083339610828091FD0290916F
:10068000FE02319690838091FD029091FE02319698
:100690008083319610828FE192E03196908331967B
:1006A00080833196CB0189529F4F9183808382E072
:1006B0003C9680838091FF02909100033196918354
:1006C000808380910103329680838091060390910C
:1006D00007033997918380838091080390910903E0
:1006E00032969183808380910A0390910B03329616
:1006F00091838083809102039091030338979183C3
:1007000080838091040390910503329691838083C6
:1007100080910103823051F0833029F0813071F5EE
:1007200083EF92E026C08BEE92E023C0FB01E05FF6
:10073000FE4F118210828091EF029091F00232966A
:10074000892B39F4118210827093F0026093EF02CA
:100750000BC08091F1029091F202DC01A05FBE4FCC
:100760006D937C93918380837093F2026093F10286
:1007700005C04FDE03C080E090E0089581E090E086
:10078000089584E080930002DFDECF93DF931F9211
:10079000CDB7DEB780918100826080938100E9E16E
:1007A000F4E0A5E3B2E010821D921D92CF010896FD
:1007B00095838483EC5EFE4F2BE0E53AF20799F7D0
:1007C0001092AA0B1092A90B0DE013E01093F802FF
:1007D0000093F70289E99AE09093FA028093F90274
:1007E00086E591E09093FE028093FD021092010352
:1007F00006DF89EF97E09093FE028093FD0283E08D
:1008000080930103FCDE1093C40C0093C30C81E0C1
:10081000809319048BEE92E01CDE80916F00826061
:1008200080936F0080E197E2909389008093880025
:10083000109285001092840082E086BBEE24E3943F
:100840000DEA1BE082E0F82E8091C30C9091C40C5D
:10085000FC01E45FFE4F2081213021F48D5A9B4042
:1008600009F057C08091EB029091EC02892B19F0AE
:100870008BEE92E03DC08091EF029091F0020097E4
:1008800079F120E030E040E050E0FC01EE5FFE4F07
:1008900060817181672B81F4DC01AA5FBE4F2D91CD
:1008A0003C91318320833696208131813497318386
:1008B00020834F5F5F4F9C014230510514F08BE065
:1008C00066C0FC01E05FFE4F808191810097E9F6F0
:1008D0002115310529F03093C40C2093C30C12C0AC
:1008E0008091F3029091F402892B41F083EF92E022
:1008F000B0DD9093C40C8093C30C04C01093C40C5F
:100900000093C30CE091C30CF091C40CE45FFE4F64
:10091000E082CDDC20910C03223009F45BC0C09052
:10092000C30CD090C40C233030F4222309F4ECC063
:10093000213051F0E1C0243009F4C9C008F46AC084
:10094000253009F4E1C0D8C08091840090918500E1
:100950009093480280934702809149028F5F809371
:100960004902F601E15FFE4F4081423099F433972E
:100970008081813079F438978081918101979183CA
:100980008083349680819181892B21F488E0809343
:100990000002DADD8091EF029091F002009769F099
:1009A000FC01EE5FFE4F20813181215031093183FE
:1009B00020833E9680819181F1CF413009F0A4C01F
:1009C000F601E45FFE4F8081813009F09DC0F08226
:1009D000B601A7C0298313DE9093FC028093FB022B
:1009E0008091FB029091FC022981892B89F0609112
:1009F000C30C7091C40CFB01E15FFE4F808183301A
:100A000009F482C090910103933009F080C076C050
:100A100087E0BDCFFDEACF16FBE0DF0609F474C026
:100A2000F601E45FFE4F108233968081823009F038
:100A30004AC02091EF023091F0022C153D0569F477
:100A4000319680819181009741F09093F0028093DC
:100A5000EF02FC01EE5EFE4F15C08091F102909115
:100A6000F202F601EE5EFE4F8C159D05D1F48081F9
:100A70009181009751F09093F2028093F102FC0172
:100A8000E05FFE4F118210821EC02C153D0549F417
:100A90001092F2021092F1021092F0021092EF0204
:100AA00012C080819181FC01E05FFE4FA081B18185
:100AB000A05FBE4F2D913C9131832083F901EE5E02
:100AC000FE4F91838083B60187EF92E02CC0F60140
:100AD000E15FFE4F8081813031F0833041F4B60117
:100AE0008BEE92E003C0B60183EF92E092DCF60158
:100AF000E45FFE4FF08208C08FEF49CFFB01E45F57
:100B0000FE4F2083813069F010920C039DCE81301E
:100B1000D9F7809101038230B9F7FB01E45FFE4F02
:100B2000808383EF92E075DCEFCF9FB7F8948091DC
:100B30004A028A30A8F420E1829FF0011124E55B8B
:100B4000FD4F178616868F5F80934A029FBF809164
:100B50004A0220E1829FC0011124855C9D4F0895C7
:100B60008EE080930002F0DCCF93CFB7F894209111
:100B7000C30C3091C40CF901E15FFE4F408142305B
:100B800011F48DE01FC0FC014685578543305105A7
:100B9000C4F4FA01EE0FFF1FE80FF91F3183208321
:100BA000778366834F5F5F4FFC0157874687F90164
:100BB000E45FFE4F83E08083CFBFD2DBCFBFCF9116
:100BC00008958CE080930002BFDCAF92BF92CF9279
:100BD000DF92EF92FF920F931F93CF93DF93EC017D
:100BE0006B01AFB6F8947D876C877C0100E010E064
:100BF000B2E0BB2E8E859F8508171907C4F5D70173
:100C00001696ED91FC911797D182C082F701619100
:100C100071917F01FB01E45FFE4FB08233968081CA
:100C20008330B9F48BEE92E0F4DB6091C30C7091E9
:100C3000C40CFB01E15FFE4F8081813019F43397D2
:100C4000B0820FC0823081F4FB01E45FFE4F8083ED
:100C50000BC0823021F48AE08093000275DC813081
:100C600019F483EF92E0D5DB0F5F1F4FC3CF1F86D0
:100C70001E8676DBAFBEDF91CF911F910F91FF9063
:100C8000EF90DF90CF90BF90AF900895CF93CFB704
:100C9000F8949093FE028093FD027093000360939A
:100CA000FF0283E08093010382E080930C0358DB12
:100CB0008091FB029091FC02CFBFCF9108950F93DA
:100CC0001F93CF93CFB7F8949093FE028093FD02C9
:100CD000709300036093FF0282E0809301035093BE
:100CE00007034093060330930903209308031093EE
:100CF0000B0300930A031093030300930203309342
:100D000005032093040380930C032ADB8091FB02EC
:100D10009091FC02CFBFCF911F910F910895CF9377
:100D2000DF931F92CDB7DEB78FB78983F89484E045
:100D300080930C0315DB89818FBF0F90DF91CF91DA
:100D4000089523DDCF93DF93CDB7DEB7A2970FB61B
:100D5000F894DEBF0FBECDBF279A15B888E192E0A8
:100D600009D315E001E0BE016F5D7F4F8091E60C75
:100D70009091E70CF9DECE01019685D3739A8350EA
:100D8000823088F72091E40CE5E0F0E0EC0FFD1FE5
:100D9000E20FF11D8081FE013496A5ECBCE0912F9D
:100DA00001900D929A95E1F799819111DCCF909184
:100DB000E50C891771F081FD0AC091FD08C02C83F4
:100DC0009D83098361E0CE0101960ED302C080931A
:100DD000E50CCE01019657D3D2CF00EF10E084E6A8
:100DE000E82EF12CCFEFDFEFCC24C394D12C8091EF
:100DF000C50C813029F0C8F1823009F443C0F9CF25
:100E00008091E50C80FD31C06AEC7CE082E051D439
:100E10006AEC7CE081E04DD48091CA0C80FF09C06F
:100E2000F0920202E0920102D092E90CC092E80C2A
:100E300013C081FF09C0F0920202E0920102D09338
:100E4000E90CC093E80C08C0109302020093010261
:100E50001092E90C1092E80C6091E80C7091E90C8A
:100E600080910102909102021DC010920202109224
:100E700001021092E90C1092E80C60E070E080E052
:100E800090E010C08091E50C80FDEFCF109302023E
:100E900000930102D093E90CC093E80C6FEF7FEF51
:100EA00080EF90E08ED43BDFA2CFFDD9823459F49D
:100EB0008091E50C81FD2BC02091E40C982F91705E
:100EC000223098F40CC0813411F58091E50C81FD3D
:100ED0001EC02091E40C982F9170223030F0913098
:100EE000B1F489278093E50C06C0911110C091E000
:100EF00098279093E50C8091020198E089278093D0
:100F000002018091020190E18927809302010895F6
:100F10009EB128E092279EB9682F70E08091E60C80
:100F20009091E70C52DE8091E50C80FD09C0809124
:100F300002018F7E8093020180910201886008C0C7
:100F40008091020180618093020180910201877F7C
:100F500080930201089580910101886180930101CD
:100F60006B9A8091E50C80FD04C08091020188603D
:100F700003C08091020180618093020180910A0187
:100F8000846080930A0180910B018B7F80930B0119
:100F90002FEF89E698E1215080409040E1F700C0B2
:100FA000000080910B01846080930B012FEF89E694
:100FB00098E1215080409040E1F700C0000080910E
:100FC0000302F0D06091E40C25E0629FB00111248F
:100FD0006C5F7D4F41E080E059D163E080E0DED17D
:100FE000A4DD9093E70C8093E60C1092C50C2CD3F3
:100FF0009AC80F931F93AFDF60E070E082EA96E03B
:1010000045DE05E010E024E030E04AE050E060E03A
:1010100070E08DEE96E053DE81E090E01F910F913D
:101020000895CF93DF93C2E0D1E088818F7B8883DE
:101030008FEF04D3988190649883DF91CF910895C6
:10104000CF92DF92FF920F931F93CF93DF931F9264
:10105000CDB7DEB78B0192E0C92EDD24D394F60123
:1010600090819F7B90838F7180624983E7D2F82EB5
:101070004981642FC801D5D2F60190819064908394
:101080008F2D0F90DF91CF911F910F91FF90DF90E7
:10109000CF900895EF92FF920F931F93CF93DF931A
:1010A0001F92CDB7DEB77B018A01909102019F7B31
:1010B000909302012983C2D22981222359F001157C
:1010C000110521F4622FC701ACD204C0422FB80130
:1010D000C70196D2809102018064809302010F9033
:1010E000DF91CF911F910F91FF90EF900895809124
:1010F0002A02882329F045E060E272E08AE0A0CF6E
:101100000895EF92FF921F93CF93DF931F921F9248
:10111000CDB7DEB79FEFFB01908322E0E22EFF24E4
:10112000F394F70190819F7B90838F7169837A8319
:1011300085D2182F41E069817A8180E090E060D209
:10114000F701908190649083812F0F900F90DF9131
:10115000CF911F91FF90EF900895CF93DF931F924F
:10116000CDB7DEB7BE016F5F7F4F80E0CADF8981F8
:1011700080FD14C08160898341E0BE016F5F7F4FB5
:1011800080E05EDF83E091E00197F1F700C00000AE
:1011900083E091E00197F1F700C000000F90DF912C
:1011A000CF9108951F93CF93DF931F92CDB7DEB7F2
:1011B000182F1092EA0CE2E0F1E090819F7D90837D
:1011C000E1E0F1E09081906290839081906490835F
:1011D0006C98EAE6F0E090819260908390819E7F27
:1011E0009083EC9AE49A8FED9BEA0197F1F700C0A7
:1011F0000000F9D183E0898341E0BE016F5F7F4F3A
:101200001FDF85E1898341E0BE016F5F7F4F84E08E
:1012100017DF198341E0BE016F5F7F4F85E010DF6C
:1012200089E0898341E0BE016F5F7F4F86E008DF80
:101230008FE0898341E0BE016F5F7F4F80E000DF78
:1012400080E7898341E0BE016F5F7F4F87E0F8DE72
:1012500020E040E050E060E070E081EE1BDF20E045
:1012600040E050E060E070E082EE14DF8FE39FE149
:101270000197F1F700C00000E2E0F1E080818062B8
:1012800080830F90DF91CF911F910895DF92EF92AD
:10129000FF920F931F93CF93DF931F921F92CDB7AF
:1012A000DEB7982FFB01D42E863008F059C081118B
:1012B00010C08081809320028181809321028281ED
:1012C000809322028381809323028481809324026D
:1012D00004C0813011F041E001C045E0BF018AE067
:1012E000890F9A83ADDEBE016F5F7F4F81E009DF1A
:1012F0009A81E92EF12C01E010E001C0000F9A95CF
:10130000EAF78981802B898341E0BE016F5F7F4FBF
:1013100081E096DE9A81DD2011F080E201C080E05C
:10132000898341E0BE016F5F7F4F81E1890F88DED5
:101330008981F701E65DFD4F8083BE016F5F7F4FBE
:1013400082E0DFDE8981DD2011F0082B02C00095EC
:101350000823098341E0BE016F5F7F4F82E070DEAA
:101360000F900F90DF91CF911F910F91FF90EF9011
:10137000DF900895FC018081809325028181809314
:1013800026028281809327028381809328028481B0
:101390008093290245E0BF0180E152CE0F931F9355
:1013A000CF93DF931F92CDB7DEB7182F062F64308F
:1013B000A8F4823098F4BE016F5F7F4F86E0A1DE13
:1013C000602F660F998196606923111168606983A7
:1013D00041E0BE016F5F7F4F86E032DE0F90DF910C
:1013E000CF911F910F910895FF920F931F93CF9369
:1013F000DF931F92CDB7DEB78C01F62E81E080938C
:10140000EA0C809102018F7D80930201BE016F5F23
:101410007F4F80E076DE898180FF14C08E7F8983D4
:1014200041E0BE016F5F7F4F80E00ADE83E091E024
:101430000197F1F700C0000083E091E00197F1F718
:1014400000C0000045E065E272E08AE0F9DD20E2DC
:1014500040E050E0B80180EA1DDE80910201806228
:1014600080930201F11007C08091EA0C8111FCCF3A
:1014700080911D0201C081E00F90DF91CF911F91FB
:101480000F91FF900895CF93DF93EC011092EA0C37
:10149000809102018F7D80930201C3DD8E70282F21
:1014A00030E035952795F901E65DFD4F8081813269
:1014B00068F4273069F02081AE01BE0181E6EADDE3
:1014C000B0DD8E708E3031F083E005C080E003C067
:1014D00082E001C084E09091020190629093020149
:1014E0001092EA0CDF91CF9108951F920F920FB6E0
:1014F0000F9211240BB60F922F933F934F935F934C
:101500006F937F938F939F93AF93BF93EF93FF93CB
:10151000CF93DF931F92CDB7DEB7809102018F7D0D
:10152000809302017EDD898386FF03C08E708695DD
:10153000EFDC898185FF1BC01092EA0CD8DD0DDE3F
:1015400080911E0290911F02880F991F90931F0295
:1015500080931E0280911E0290911F0281609093E1
:101560001F0280931E0281E080931D0219C084FF38
:1015700017C020E040E050E060E070E081EE8ADDDE
:101580001092EA0CB4DDE9DD80911E0290911F02F9
:10159000880F991F90931F0280931E0210921D02C4
:1015A00080E7898341E0BE016F5F7F4F87E048DDC0
:1015B000809102018062809302010F90DF91CF91B0
:1015C000FF91EF91BF91AF919F918F917F916F911B
:1015D0005F914F913F912F910F900BBE0F900FBED7
:1015E0000F901F90189584B1807F84B984B1876073
:1015F00084B9289A80E58CBD81E08DBD2898089536
:10160000262FFB013E2F321B341750F4DC013D9195
:10161000CD013EBD0DB407FEFDCF3EB53193F2CFF7
:101620000895282FFC018E2F821B861730F481919C
:101630008EBD0DB407FEFDCFF6CF08958EBD0DB45F
:1016400007FEFDCF8EB50895519A599883E0DDD0FD
:1016500080E8D4D02FEF89EF90E021508040904077
:10166000E1F700C0000081E8C9D087E0C7D02FEFC4
:1016700081EE94E0215080409040E1F700C00000EE
:1016800080E0C3D080E8BAD02FEF89EF90E02150FE
:1016900080409040E1F700C0000083E8AFD02FEF1A
:1016A00089EF90E0215080409040E1F700C00000B9
:1016B00008951F93CF93DF93182FEB018EE89ED0F0
:1016C000812F9CD0123091F1133009F44BC01130AE
:1016D00009F073C0C7D08A30E9F780E090E0EED01F
:1016E000888381E090E0EAD0898382E090E0E6D0D0
:1016F0008A8383E090E0E2D08B8384E090E0DED0C8
:101700008C8385E090E0DAD08D8386E090E0D6D0BF
:101710008E8387E090E0D2D08F8388E090E0CED0B7
:10172000888789E090E0CAD0898747C09BD08630FF
:10173000E9F780E090E0C2D08A8781E090E0BED0F7
:101740008B8782E090E0BAD08D8783E090E0B6D0BE
:101750008C8784E090E0B2D08F8785E090E0AED0B7
:101760008E872BC07FD08A30E9F780E090E0A6D04A
:10177000888B81E090E0A2D08A8B82E090E09ED0BE
:10178000898B83E090E09AD08C8B84E090E096D0B7
:101790008B8B85E090E092D08D8B86E090E08ED0B0
:1017A0008F8B87E090E08AD08E8B88E090E086D0A7
:1017B000898F89E090E082D0888FDF91CF911F914F
:1017C00054C01F93CF93DF9300D0CDB7DEB7182F4F
:1017D00089E86B837A83998311D09981892F0ED000
:1017E000812F0CD07A81872F09D06B81862F0F90A3
:1017F0000F900F90DF91CF911F9100C09091C80082
:1018000095FFFCCF8093CE0008952FB7F894909168
:1018100065009E7F90936500813059F038F08230EA
:1018200059F0833049F488E090E008C083E390E009
:1018300005C089E190E002C080E190E09093CD0086
:101840008093CC0080E48093C80088E98093C9002D
:1018500086E08093CA008091C8008D7F8093C80085
:101860002FBF08958091EB0C08951092EB0C089512
:101870001F920F920FB60F9211240BB60F928F93F7
:101880009F93EF93FF93E091EB0CF0E08091CE00FB
:10189000E451F34F80838091EB0C90E001968F71BF
:1018A00099278093EB0CFF91EF919F918F910F906F
:1018B0000BBE0F900FBE0F901F90189580329105B0
:1018C0002CF4FC01E451F34F8081089580E00895E9
:1018D0001F920F920FB60F9211242F933F938F9365
:1018E0009F93AF93BF938091100D9091110DA09194
:1018F000120DB091130D3091140D0196A11DB11D63
:10190000232F2D5F2D3720F02D570196A11DB11DDE
:101910002093140D8093100D9093110DA093120D30
:10192000B093130D80910C0D90910D0DA0910E0DA3
:10193000B0910F0D0196A11DB11D80930C0D9093D8
:101940000D0DA0930E0DB0930F0DBF91AF919F9110
:101950008F913F912F910F900FBE0F901F90189570
:04196000F894FFCF29
:1019640006F000664A4A4A4A4A4A4A4A4A4A4A4A9F
:101974004A4A4A4A4A4A4A4AFFFFFFFFFF01FF0018
:10198400E7E7E7E7E7E7E7E7E7E72020000000000D
:00000001FF
